:020000040800F2
:1000000000500020F5680008096600080B6600082B
:100010000D6600080F660008116600080000000069
:10002000000000000000000000000000136600084F
:100030001566000800000000176600081966000831
:100040003D6900083D6900083D6900083D690008F8
:100050003D6900083D690008216600082B6600081C
:100060003D6900083D6900083D6900083D690008D8
:100070003D6900083D6900083D6900083D690008C8
:100080003D6900083D6900083566000845660008BE
:10009000556600083D6900083D6900083D69000893
:1000A0003D6900083D6900083D6900083D69000898
:1000B0003D690008656600083D6900083D69000863
:1000C0003D6900083D6900083D6900083D69000878
:1000D0003D6900083D6900083D6900083D69000868
:1000E0003D6900083D6900083D6900080000000006
:1000F0000000000000000000000000000000000000
:0C01000000000000000000005FF808F1A3
:1001100010B5054C237833B9044B13B10448AFF341
:1001200000800123237010BDF804002000000000AF
:10013000C4AE000808B5034B1BB103490348AFF335
:10014000008008BD00000000FC040020C4AE0008D0
:10015000034613F8012B002AFBD1181A0138704707
:1001600081F0004102E000BF83F0004330B54FEA68
:1001700041044FEA430594EA050F08BF90EA020FD5
:100180001FBF54EA000C55EA020C7FEA645C7FEA68
:10019000655C00F0E2804FEA5454D4EB5555B8BF8B
:1001A0006D420CDD2C4480EA020281EA030382EAFC
:1001B000000083EA010180EA020281EA0303362D8E
:1001C00088BF30BD11F0004F4FEA01314FF4801C61
:1001D0004CEA113102D0404261EB410113F0004F73
:1001E0004FEA03334CEA133302D0524263EB43032A
:1001F00094EA050F00F0A780A4F10104D5F1200EC8
:100200000DDB02FA0EFC22FA05F2801841F1000122
:1002100003FA0EF2801843FA05F359410EE0A5F1F6
:1002200020050EF1200E012A03FA0EFC28BF4CF027
:10023000020C43FA05F3C01851EBE37101F00045DD
:1002400007D54FF0000EDCF1000C7EEB00006EEBEA
:100250000101B1F5801F1BD3B1F5001F0CD3490874
:100260005FEA30004FEA3C0C04F101044FEA4452CB
:1002700012F5800F80F09A80BCF1004F08BF5FEA52
:10028000500C50F1000041EB045141EA050130BD32
:100290005FEA4C0C404141EB0101013C28BFB1F544
:1002A000801FE9D291F0000F04BF01460020B1FA8F
:1002B00081F308BF2033A3F10B03B3F120020CDA62
:1002C0000C3208DD02F1140CC2F10C0201FA0CF040
:1002D00021FA02F10CE002F11402D8BFC2F1200CA5
:1002E00001FA02F120FA0CFCDCBF41EA0C0190405B
:1002F000E41AA2BF01EB0451294330BD6FEA0404A4
:100300001F3C1CDA0C340EDC04F11404C4F120028E
:1003100020FA04F001FA02F340EA030021FA04F3A0
:1003200045EA030130BDC4F10C04C4F1200220FAF7
:1003300002F001FA04F340EA0300294630BD21FA35
:1003400004F0294630BD94F0000F83F4801306BFFB
:1003500081F480110134013D4EE77FEA645C18BFEF
:100360007FEA655C29D094EA050F08BF90EA020F86
:1003700005D054EA000C04BF1946104630BD91EA7E
:10038000030F1EBF0021002030BD5FEA545C05D181
:100390004000494128BF41F0004130BD14F58004C0
:1003A0003CBF01F5801130BD01F0004545F0FE4134
:1003B00041F470014FF0000030BD7FEA645C1ABF69
:1003C000194610467FEA655C1CBF0B46024650EAA0
:1003D000013406BF52EA033591EA030F41F40021CC
:1003E00030BD00BF90F0000F04BF0021704730B552
:1003F0004FF4806404F132044FF000054FF0000127
:1004000050E700BF90F0000F04BF0021704730B5E7
:100410004FF4806404F1320410F0004548BF4042BC
:100420004FF000013EE700BF42004FEAE2014FEA11
:1004300031014FEA02701FBF12F07F4393F07F4FEC
:1004400081F06051704732F07F4208BF704793F0EF
:100450007F4F04BF41F40021704730B54FF4607402
:1004600001F0004521F000411CE700BF50EA010205
:1004700008BF704730B54FF000050AE050EA0102AE
:1004800008BF704730B511F0004502D5404261EB1E
:1004900041014FF4806404F132045FEA915C3FF45F
:1004A000D8AE4FF003025FEADC0C18BF03325FEAFC
:1004B000DC0C18BF033202EBDC02C2F1200300FAAD
:1004C00003FC20FA02F001FA03FE40EA0E0021FAD2
:1004D00002F11444BDE600BF70B54FF0FF0C4CF4C0
:1004E000E06C1CEA11541DBF1CEA135594EA0C0F72
:1004F00095EA0C0F00F0DEF82C4481EA030621EAAD
:100500004C5123EA4C5350EA013518BF52EA0335E7
:1005100041F4801143F4801338D0A0FB02CE4FF099
:100520000005E1FB02E506F00042E0FB03E54FF0C9
:100530000006E1FB03569CF0000F18BF4EF0010EC1
:10054000A4F1FF04B6F5007F64F5407404D25FEABD
:100550004E0E6D4146EB060642EAC62141EA555170
:100560004FEAC52040EA5E504FEACE2EB4F1FD0CB2
:1005700088BFBCF5E06F1ED8BEF1004F08BF5FEA30
:10058000500E50F1000041EB045170BD06F00046E2
:1005900046EA010140EA020081EA0301B4EB5C048F
:1005A000C2BFD4EB0C0541EA045170BD41F4801187
:1005B0004FF0000E013C00F3AB8014F1360FDEBFAC
:1005C000002001F0004170BDC4F10004203C35DA88
:1005D0000C341BDC04F11404C4F1200500FA05F30B
:1005E00020FA04F001FA05F240EA020001F00042AC
:1005F00021F0004110EBD37021FA04F642EB060122
:100600005EEA430E08BF20EAD37070BDC4F10C044B
:10061000C4F1200500FA04F320FA05F001FA04F20F
:1006200040EA020001F0004110EBD37041F10001FB
:100630005EEA430E08BF20EAD37070BDC4F1200506
:1006400000FA05F24EEA020E20FA04F301FA05F26E
:1006500043EA020321FA04F001F0004121FA04F216
:1006600020EA020000EBD3705EEA430E08BF20EAE6
:10067000D37070BD94F0000F0FD101F00046400020
:1006800041EB010111F4801F08BF013CF7D041EAA2
:10069000060195F0000F18BF704703F000465200A6
:1006A00043EB030313F4801F08BF013DF7D043EA77
:1006B0000603704794EA0C0F0CEA135518BF95EA2D
:1006C0000C0F0CD050EA410618BF52EA4306D1D1B4
:1006D00081EA030101F000414FF0000070BD50EAD3
:1006E000410606BF1046194652EA430619D094EA5D
:1006F0000C0F02D150EA013613D195EA0C0F05D147
:1007000052EA03361CBF104619460AD181EA03019A
:1007100001F0004141F0FE4141F470014FF0000052
:1007200070BD41F0FE4141F4780170BD70B54FF0ED
:10073000FF0C4CF4E06C1CEA11541DBF1CEA13556D
:1007400094EA0C0F95EA0C0F00F0A7F8A4EB05044F
:1007500081EA030E52EA03354FEA013100F0888046
:100760004FEA03334FF0805545EA131343EA12630F
:100770004FEA022245EA111545EA10654FEA0026C4
:100780000EF000419D4208BF964244F1FD0404F57D
:10079000407402D25B084FEA3202B61A65EB0305D9
:1007A0005B084FEA32024FF480104FF4002CB6EB96
:1007B000020E75EB030E22BFB61A754640EA0C0016
:1007C0005B084FEA3202B6EB020E75EB030E22BF56
:1007D000B61A754640EA5C005B084FEA3202B6EB97
:1007E000020E75EB030E22BFB61A754640EA9C0056
:1007F0005B084FEA3202B6EB020E75EB030E22BF26
:10080000B61A754640EADC0055EA060E18D04FEAE3
:10081000051545EA16754FEA06164FEAC30343EA83
:1008200052734FEAC2025FEA1C1CC0D111F4801F50
:100830000BD141EA00014FF000004FF0004CB6E749
:1008400011F4801F04BF01430020B4F1FD0C88BFE8
:10085000BCF5E06F3FF6AFAEB5EB030C04BFB6EBF3
:10086000020C5FEA500C50F1000041EB045170BDE6
:100870000EF0004E4EEA113114EB5C04C2BFD4EB13
:100880000C0541EA045170BD41F480114FF0000E97
:10089000013C90E645EA060E8DE60CEA135594EA13
:1008A0000C0F08BF95EA0C0F3FF43BAF94EA0C0F16
:1008B0000AD150EA01347FF434AF95EA0C0F7FF48B
:1008C00025AF104619462CE795EA0C0F06D152EADF
:1008D00003353FF4FDAE1046194622E750EA4106C3
:1008E00018BF52EA43067FF4C5AE50EA41047FF4D4
:1008F0000DAF52EA43057FF4EBAE12E74FEA410237
:10090000B2F1E04324BFB3F5001CDCF1FE5C0DD96D
:1009100001F0004C4FEAC0024CEA5070B2F1004FB7
:1009200040EB830008BF20F00100704711F0804FBA
:1009300021D113F13872BCBF01F00040704741F47F
:1009400080114FEA5252C2F11802C2F1200C10FA83
:100950000CF320FA02F018BF40F001004FEAC12367
:100960004FEAD32303FA0CFC40EA0C0023FA02F30B
:100970004FEA4303CCE77FEA625307D150EA0133E1
:100980001EBF4FF0FE4040F44000704701F00040B1
:1009900040F0FE4040F40000704700BF80F000408F
:1009A00002E000BF81F0004142001FBF5FEA410347
:1009B00092EA030F7FEA226C7FEA236C6AD04FEA47
:1009C0001262D2EB1363C1BFD2184140484041408C
:1009D000B8BF5B42192B88BF704710F0004F40F43E
:1009E000000020F07F4018BF404211F0004F41F45A
:1009F000000121F07F4118BF494292EA030F3FD026
:100A0000A2F1010241FA03FC10EB0C00C3F1200338
:100A100001FA03F100F0004302D5494260EB4000C7
:100A2000B0F5000F13D3B0F1807F06D340084FEA32
:100A3000310102F10102FE2A51D2B1F1004F40EB27
:100A4000C25008BF20F0010040EA0300704749008F
:100A500040EB0000013A28BFB0F5000FEDD2B0FA2C
:100A600080FCACF1080CB2EB0C0200FA0CF0AABF4F
:100A700000EBC25052421843BCBFD04018437047ED
:100A800092F0000F81F4000106BF80F400000132F3
:100A9000013BB5E74FEA41037FEA226C18BF7FEACA
:100AA000236C21D092EA030F04D092F0000F08BF0C
:100AB0000846704790EA010F1CBF0020704712F0F3
:100AC0007F4F04D1400028BF40F00040704712F132
:100AD00000723CBF00F50000704700F0004343F097
:100AE000FE4040F4000070477FEA226216BF0846CD
:100AF0007FEA23630146420206BF5FEA412390EA90
:100B0000010F40F4800070474FF0000304E000BF85
:100B100010F0004348BF40425FEA000C08BF704736
:100B200043F0964301464FF000001CE050EA0102FA
:100B300008BF70474FF000030AE000BF50EA01020F
:100B400008BF704711F0004302D5404261EB4101FC
:100B50005FEA010C02BF84460146002043F0B64321
:100B600008BFA3F18053A3F50003BCFA8CF2083A46
:100B7000A3EBC25310DB01FA02FC634400FA02FC4F
:100B8000C2F12002BCF1004F20FA02F243EB020056
:100B900008BF20F00100704702F1200201FA02FCB8
:100BA000C2F1200250EA4C0021FA02F243EB0200AB
:100BB00008BF20EADC7070474FF0FF0C1CEAD052EF
:100BC0001EBF1CEAD15392EA0C0F93EA0C0F6FD0B0
:100BD0001A4480EA010C400218BF5FEA41211ED08E
:100BE0004FF0006343EA501043EA5111A0FB01317A
:100BF0000CF00040B1F5000F3EBF490041EAD3714F
:100C00005B0040EA010062F17F02FD2A1DD8B3F1CA
:100C1000004F40EBC25008BF20F00100704790F039
:100C2000000F0CF0004C08BF49024CEA502040EA8B
:100C300051207F3AC2BFD2F1FF0340EAC250704751
:100C400040F400004FF00003013A5DDC12F1190F8F
:100C5000DCBF00F000407047C2F10002410021FA01
:100C600002F1C2F1200200FA02FC5FEA310040F119
:100C7000000053EA4C0308BF20EADC70704792F092
:100C8000000F00F0004C02BF400010F4000F013ACA
:100C9000F9D040EA0C0093F0000F01F0004C02BFC5
:100CA000490011F4000F013BF9D041EA0C018FE734
:100CB0000CEAD15392EA0C0F18BF93EA0C0F0AD03A
:100CC00030F0004C18BF31F0004CD8D180EA010060
:100CD00000F00040704790F0000F17BF90F0004FF9
:100CE000084691F0000F91F0004F14D092EA0C0FDB
:100CF00001D142020FD193EA0C0F03D14B0218BF6E
:100D0000084608D180EA010000F0004040F0FE40B3
:100D100040F40000704740F0FE4040F4400070474F
:100D20004FF0FF0C1CEAD0521EBF1CEAD15392EACE
:100D30000C0F93EA0C0F69D0A2EB030280EA010CBE
:100D400049024FEA402037D04FF0805343EA111157
:100D500043EA10130CF000408B4238BF5B0042F1B5
:100D60007D024FF4000C8B4224BF5B1A40EA0C005A
:100D7000B3EB510F24BFA3EB510340EA5C00B3EB8C
:100D8000910F24BFA3EB910340EA9C00B3EBD10F7A
:100D900024BFA3EBD10340EADC001B0118BF5FEACC
:100DA0001C1CE0D1FD2A3FF650AF8B4240EBC250F5
:100DB00008BF20F0010070470CF0004C4CEA5020B6
:100DC0007F32C2BFD2F1FF0340EAC250704740F405
:100DD00000004FF00003013A37E792F0000F00F0F7
:100DE000004C02BF400010F4000F013AF9D040EA75
:100DF0000C0093F0000F01F0004C02BF490011F409
:100E0000000F013BF9D041EA0C0195E70CEAD15300
:100E100092EA0C0F08D142027FF47DAF93EA0C0FE7
:100E20007FF470AF084676E793EA0C0F04D14B02CB
:100E30003FF44CAF08466EE730F0004C18BF31F07D
:100E4000004CCAD130F000427FF45CAF31F0004377
:100E50007FF43CAF5FE700BF4FF0FF3C06E000BF10
:100E60004FF0010C02E000BF4FF0010C4DF804CD33
:100E70004FEA40024FEA41037FEA226C18BF7FEA43
:100E8000236C11D001B052EA530C18BF90EA010F45
:100E900058BFB2EB030088BFC81738BF6FEAE170D4
:100EA00018BF40F0010070477FEA226C02D15FEA70
:100EB000402C05D17FEA236CE4D15FEA412CE1D0DC
:100EC0005DF8040B704700BF844608466146FFE7A3
:100ED0000FB5FFF7C9FF002848BF10F1000F0FBD85
:100EE0004DF808EDFFF7F4FF0CBF012000205DF87E
:100EF00008FB00BF4DF808EDFFF7EAFF34BF012003
:100F000000205DF808FB00BF4DF808EDFFF7E0FF9B
:100F100094BF012000205DF808FB00BF4DF808EDEC
:100F2000FFF7D2FF94BF012000205DF808FB00BF4F
:100F30004DF808EDFFF7C8FF34BF012000205DF831
:100F400008FB00BF4FEA4002B2F1FE4F0FD34FF053
:100F50009E03B3EB12620DD94FEA002343F0004326
:100F600010F0004F23FA02F018BF404270474FF0D4
:100F70000000704712F1610F01D1420205D110F05B
:100F8000004008BF6FF0004070474FF0000070470E
:100F90008446C0B1407CC0B9C9B1032A19D9D3B1C4
:100FA000DCF80400426A5AB14FF0000C90F8282097
:100FB000803242EA0C020A6004221A600020704764
:100FC0004FF0004CF2E709207047092070470920D4
:100FD0007047092070470920704780B3844681B369
:100FE0008BB3032A01D8407C78BB82B310B5DCF800
:100FF000040090F81CE0BEF1010F2AD99CF81140C2
:1010000094B190F82020944225D8427F121B94B2CC
:10101000002A10DB724520DA806950F832200A601D
:1010200004221A60002010BD90F820200A700122CE
:101030001A600020F7E70EEB040212B2ECE7092079
:101040007047092070470920704709207047092020
:1010500070470920E7E71920E5E70920E3E7844620
:1010600070B1407C70B979B1012A0FD183B10A788F
:1010700082B9DCF8042082F8200001221A6070474F
:1010800009207047092070470920704709207047E0
:10109000092070470F2070472DE9F04F85B09DF86B
:1010A00038B0DDF83C90DDF844A09DF84880002879
:1010B00074D00D4616461F460446002A71D0002BF8
:1010C0005ED0B9F1000F6FD0002D70D0B8F1000FD5
:1010D00070D018F0800F70D1BAF1000F70D050228C
:1010E0000021204609F07EF865610023012219469F
:1010F000304600F0F0FDE060002847D0002101708C
:10110000A76184F81CB001230093042303AA484676
:1011100000F0AEFD024618B92E4B03990B403BB1CF
:10112000139B1BB1B9F8003013990B60002A4AD108
:10113000039BDB43DB0F63622463274B6363274B13
:10114000A36304F13003C9F8083084F82880002331
:1011500001930822009208F18002BDF84010284651
:1011600004F04EFCE06288B324641D4B63641D4BA5
:10117000A3644034CAF80840002005B0BDE8F08FF1
:10118000BBF1010F9DD94FF0FF30F6E7139B13B170
:101190003388139A13606FF00B00EEE74FF0FF30C7
:1011A000EBE74FF0FF30E8E74FF0FF30E5E74FF0B7
:1011B000FF30E2E74FF0FF30DFE74FF0FF30DCE7D2
:1011C0004FF0FF30D9E76FF00B00D6E74FF0FF305C
:1011D000D3E700BF00F8FF7F910F0008871A0008CF
:1011E000DB0F00085F10000800285DD030B5844692
:1011F000D40802F007050120A840C0B24F2A04D944
:101200000392012005244FF4C24325461CF804E054
:101210000EEA0004A9B3002C45D143EA0262DCF8CF
:101220001430EFF310841C6372B669B31CF80530F8
:1012300018430CF805009CF81C1001292ED99CF8C5
:101240001D00431CDBB2994200D800239CF81E10FD
:10125000994220D0DCF8181041F83020DCF8182032
:1012600002EBC002039951608CF81D309CF82020DD
:101270009CF81C30013B9A4210DA01328CF8202095
:101280000CE084B10023C8E71CF8053023EA000015
:101290000CF80500CFE701238CF81F30DCF8143080
:1012A0001B6B83F3108830BD7047F0B583B00446E4
:1012B0000F4643695E8A058AB54217D0754006829B
:1012C00040F201131D422CD115F0020F35D115F05B
:1012D000040F3DD115F0080F45D115F0800F4DD109
:1012E00015F4007F55D115F4006F5DD1637903B11A
:1012F000012362880AB143F0100322890AB143F046
:101300008003E268137057B1227F012A07D9A57FB5
:10131000627FAA4203D0E26A1269002A4ED003B06B
:10132000F0BD1E424FF0000300934FF0010214BFC6
:1013300011461946FFF758FFC6E70023009348F20D
:1013400020130722C6F340012046FFF74DFFBEE7FA
:101350000023009348F240131222C6F38001204676
:10136000FFF742FFB6E70023009348F21013142260
:10137000C6F3C0012046FFF737FFAEE70023009316
:101380004FF401431522C6F3C0112046FFF72CFF8E
:10139000A6E70023009348F220130622C6F340215B
:1013A0002046FFF721FF9EE70023009313231A46F0
:1013B000C6F3C0212046FFF717FF97E7A16951F850
:1013C000352042EA034341F83530E36AA26902EB73
:1013D000C50052F835104268C3F80510C3F809205B
:1013E000E16A606904F02EFB0135EDB2237FAB4268
:1013F00000D80025A577E37F012B0DD0022B8ED1DD
:10140000637FAB428BD10021E17700910B46202214
:101410002046FFF7E9FE82E70223E37700230093EB
:101420004FF48053202201212046FFF7DDFE76E7AE
:101430000B79012B00D0704791F9053043700123DF
:10144000C360F8E72DE9F04389B0002859D00C4675
:1014500016461F46054690F80890894554D903B1B1
:1014600082BB6B684FEA041C03EB041003F80C60AA
:101470004FF47A7307FB03F38360FF22427000226C
:10148000C2603EB333B306F5E0620123837024E00B
:101490000CF1010C5FFA8CFCE14517D96B6803EB8A
:1014A0000C1E9EE80F000DF1200E0EE90F00A44562
:1014B000EED0002AECD09DF81030B342E8D16FF0A6
:1014C0000B08E5E74FF0000CE046E5E7B8F1000F48
:1014D00013D1C6E7002282608270A98B6B686344D7
:1014E00021440B48029001930023009340F2FF73C4
:1014F00089B2A86904F04AFA8046404609B0BDE8BE
:10150000F0834FF0FF38F8E74FF0FF38F5E700BF02
:1015100031140008F8B504464068DCB10D461746A2
:101520001E46C9B1617CC9B1037A994218D8042A10
:1015300018D1CEB12A68013993B2C2F30742C9B2B9
:10154000FFF780FF90B933463A462946204600F01F
:101550009AFA04E0092002E0092000E00920F8BD21
:101560000920FCE70920FAE70920F8E70820F6E758
:101570002DE9F04784B00C9FDDF834A0DDF83C8005
:1015800000285AD0894615461C460646002957D0E1
:10159000002A58D0002F59D0BAF1000F59D030226C
:1015A000002108F01FFEC6F800907560C6F818A06C
:1015B000BDF83830B383BB78A34201D8013BDCB21D
:1015C000347200250CE0B8F1000F02D03B88C8F857
:1015D00000306FF00B032CE013F10C0F29D12546DE
:1015E000337AAB421DD96C1CE4B20123009304236F
:1015F00003AA2146384600F03BFB0028E3D1039ABA
:1016000093B2C2F3074229463046FFF71BFF034659
:101610000028E4D0B8F1000FDED03A88C8F80020E6
:10162000DAE736620C4B73620C4BB3622036BE6055
:101630000023184604B0BDE8F0874FF0FF33F8E709
:101640004FF0FF33F5E74FF0FF33F2E74FF0FF3392
:10165000EFE74FF0FF33ECE7291A000815150008F3
:101660002DE9F04F83B004460F4619B19146436906
:10167000002B52D1002F67D16369002B66D14FF048
:101680000108C24667E00123AB704B460022EA60C6
:10169000AA78022A2DD0AB78022B01D04FF0000A95
:1016A00095F90130052B01D04FF000080136F6B254
:1016B000237AB3424FD96568B34605EB0615AB787C
:1016C000002BF3D0EA6892B195F9012052B9022BB0
:1016D000D9D1009648F230131C2201212068FFF76F
:1016E00083FDD0E70223AB7000236B60CEE74B464F
:1016F000CEE76A6813446B60AA689342CBD3CDF8F7
:1017000000B048F230131B2201212068FFF76CFD66
:10171000FF236B700323AB70BDE700264FF0010879
:10172000C246C5E70132D2B2237A934210D9636828
:1017300003EB0213FF2159700021D9609978002929
:10174000F0D001219970EDE70022EDE70022EBE7F0
:101750004FF00008C246E36813B9BAF1000F07D191
:10176000C4F80CA0C4F81080676103B0BDE8F08F26
:10177000002500952B461B2229462068FFF734FDE3
:1017800000952B461C2229462068FFF72DFDE7E730
:101790000B7991F805C08A79022B00D0704712B1FD
:1017A000C3789342FAD180F802C0F7E7A8B1844623
:1017B000407CA0B9A9B1022A15D1B3B110B5DCF8AB
:1017C000044008884FF47A7E0EFB00F0A0600020F1
:1017D000E060604600F057F910BD0920704709200D
:1017E00070470920704709207047092070470000A2
:1017F0002DE9F04387B0DDF84080DDF84C900028FB
:101800006AD00D4616461F460446002967D0002AB6
:1018100068D0B8F1000F68D0B9F1000F68D02C2261
:10182000002108F0DFFCE770BDF83830A3802662A5
:10183000BDF83C304FF47A7202FB03F3E3600123FE
:10184000009302230DF116020021284600F010FA41
:1018500038BBBDF816304FF47A7202FB03F3A36075
:101860002461254B6361254BA36104F11003AB6038
:10187000E268A3689A4200D9E360214B0293019485
:101880000023009340F2FF73BDF84820BDF84410D8
:10189000404604F07BF8054658B1284607B0BDE83D
:1018A000F083169B13B12B88169A13606FF00B050B
:1018B000F3E7C4F824900023019301220092BDF8BD
:1018C0005420BDF85010484604F09AF8A062002851
:1018D000E3D14FF0FF35E0E74FF0FF35DDE74FF0A4
:1018E000FF35DAE74FF0FF35D7E74FF0FF35D4E7A4
:1018F0004FF0FF35D1E700BF291A0008AD170008E7
:101900009117000870B504460E4690F90050C36860
:10191000934201D99B1A00E00023E36035B1A2682D
:101920009AB11BB194F90130AB420ED0A36A5D713C
:10193000A16A606A04F086F82DB9A38813F4807F49
:101940000FD0052501E0A368E3606570A07890B131
:10195000802823D007D9812828D0822828D10120A7
:1019600007E07F25F1E701281BD002281CD10020C9
:1019700004250023A370A38813F4805F1AD0226A81
:1019800032B3917811F0040F24D1D27812F0080FFD
:1019900022D112F0100F21D100220CE000207F256F
:1019A000E7E700200525E4E70020E2E70220E0E782
:1019B0000020DEE70022114613F4005F14D0226AF3
:1019C00072B1D26872B112781A400ED001220CE0C6
:1019D0000122F0E70122EEE70122ECE70122EAE72B
:1019E0000022F1E70022EFE70022052D06D013F4D4
:1019F000004F0BD1257006B1357070BD09B9002AB2
:101A0000F5D013F4804F09D00425F3E77F2DF1D1F1
:101A10000029EFD1002AEDD10525EBE77F25E9E785
:101A20000220704702207047F8B510B30C461D46DF
:101A3000034601B30DB38668016801B3C06808B9F5
:101A4000964214D9B0421CD2361A0144B2420BD28B
:101A50001044D86016464FF0FF373246204608F053
:101A600099FB2E603846F8BD0027DF60F5E70027B8
:101A7000F3E70927F6E70927F4E70927F2E70E2736
:101A8000F0E70927EEE770B510B31C46034609B32B
:101A900014B38568006808B3DE680EB9954215D99D
:101AA000AE421DD2AD1B3044AA420CD21644DE60B9
:101AB00015464FF0FF36954214D32A4608F06AFBCC
:101AC0002560304670BD0026DE60F4E70026F2E7B0
:101AD0000926F6E70926F4E70926F2E70E26F0E7DD
:101AE0000926EEE70C26ECE730B5054670B303880F
:101AF0004BB3013B9AB24FF0000E02E001331FFAE4
:101B000083FE964513D20EEB0203C3F34F036C68BA
:101B100003EB430C04EB8C0034F82C408C4215D0C2
:101B2000ECD913B1013B9AB2EBE71A46E9E70CD1C5
:101B30006A680EEB4E0302EB830032F823308B42CF
:101B400004D0002002E0002000E0002030BD0000B2
:101B500000286BD030B584464568002D68D0002A37
:101B600068D0C07800F00F0002280ED0032825D0DE
:101B7000012801D0092030BD00295DD128791074D9
:101B800028681060A868906031E09CF802008842E4
:101B900054D931B9287A10742868106001209060F7
:101BA00025E0687A1074686820B12C6901F1FF3E65
:101BB0000EFB04001060E868906018E000209CF8BC
:101BC000024084420AD900EB400405EB840494F8F7
:101BD00004E08E4503D00130C0B2F0E70024002CB1
:101BE0002ED06079107420681060A0689060DCF8D6
:101BF000080000B14BB1134B5361134B93610023A9
:101C000053600020D0605174B5E7436853B153610D
:101C1000DCF808309B683BB19361DCF808301B6846
:101C20005360EEE7094BF2E7094BF5E705207047F3
:101C30000520A0E709209EE70E209CE70E209AE7EA
:101C40000E2098E7291A0008871A0008211A0008B0
:101C5000251A0008C3B2192B03D8034B53F82000F0
:101C600070470248704700BFE4AE00084700040612
:101C7000AAB130B589B01C461546002300930C9BD1
:101C800001AAFFF765FF40B9039BA34209D16B4648
:101C90002246294601A8069CA04709B030BD09206C
:101CA00070470B20F9E730B589B015461C46002374
:101CB00000930C9B01AAFFF74BFF40B9039BA34283
:101CC00007D16B462246294601A8079CA04709B0C8
:101CD00030BD0B20FBE730B589B015461C4601230B
:101CE00001AAFFF735FF034658B9019A32B1039AAA
:101CF00032B135B1AA4204D00B2302E0092300E03F
:101D0000092304B1237013B9019809B030BD002034
:101D1000FBE703B11A600020704781B138B5044673
:101D20001D4608466CB173B1A468944200D31446B2
:101D30002246002108F056FA2C60002038BD092008
:101D400070470920FAE70920F8E770B506460D4606
:101D50001C46FFF769FE10B9737C012B00D070BDE3
:101D60002368042BFBD172682B68C3F30A0131B1DD
:101D7000B2F8226126F07F04A4B2A14205D0926895
:101D80000AB943F000432B60E9E766F30F03F6E777
:101D90002DE9F04F8BB00C46C1F30729C1F3C408FD
:101DA000B8F1080F75D8064615461F46090C4FEACC
:101DB000142A1F2902D8B9F1000F44D01498FFF754
:101DC00093FE0190002303AA4946FFF7C1FE844613
:101DD000002860D1002F55D008239DF81C201A42FE
:101DE0005DD014F0070F5DD1059B43455DD3C5EB76
:101DF000C50B06EB8B0B0BF110040DF10C0EBEE8BE
:101E00000F000FC49EE8070084E80700CBF81C8091
:101E1000002F40D1B9F11F0F36D8019B9B689BB3AF
:101E20004FEAD90909F108094B44043305F13C0292
:101E300046F822300AF0070A012303FA0AFA354469
:101E400085F810A127E0C2EBC2039B001033C21833
:101E50004FF0000C40F803C0C2F804C0C2F808C03C
:101E6000C2F80CC0C2F810C0C5EBC50300EB830379
:101E7000C3F81C80C3F818800D4A5A621E460D4BE9
:101E8000B36208E00423A8E73C35002346F8253078
:101E900001E04FF0070C60460BB0BDE8F08F4FF04B
:101EA000060CF8E74FF0060CF5E74FF0060CF2E7EA
:101EB0001B1D0008131D0008002847D02DE9F04124
:101EC00082B00D4617461E468046002940D0002BA2
:101ED00040D0447C082C3FD84068816800293DD11F
:101EE000437B0BB1002C3BD1E4B995F800E0BEF187
:101EF000080F37D874450BD2C4EBC40300EB83033F
:101F00009A69DB699A422FD319440134E4B2F1E7AC
:101F100008292BD811B9BEF1000F29D1017380F81F
:101F20000DE00AE0D0F81831013CD0F81C210092F5
:101F3000E2B22968FFF72CFF28B933463A46294612
:101F40004046FFF7A0FD02B0BDE8F08109207047D0
:101F50000920F8E70920F6E70920F4E70220F2E774
:101F60000220F0E70720EEE70620ECE70720EAE78B
:101F70000F20E8E7002800F0B6802DE9F04387B095
:101F80000C4615461E460746002900F0AE80002B81
:101F900000F0AD80042A00F2AC80D0F8048005A8DF
:101FA00008F0F8F87B7C022B7ED0052B00F09080A7
:101FB000012B08D033462A4605A93846FFF763FDB2
:101FC00007B0BDE8F0832468A2B2C4F30A09E14374
:101FD000C90F534B2340002B40F08D80002C07DBB2
:101FE000D8F8083023B1B8F824314B4540F085804B
:101FF000002C1ADB12F4F06F00F08180A9F20113BB
:102000009BB27F2B7DD9A9F281539BB27E2B7AD9CB
:10201000A9F201639BB27E2B77D9A9F5DC639BB251
:102020001F2B74D9B9F5E06F73D8002C03DB98F837
:102030000D30002B6FD0D8F808308B421DD0B8F887
:1020400022314B451ED0002C20DBB8F82011D8F8E7
:102050000400344B0293CDF804800023009340F237
:10206000FF734A4603F092FC002C12DB88B901236F
:10207000C8F80830A8F824919CE7B8F824314B45FB
:10208000DDD197E724F07F030593DCE74FF00009EB
:10209000DBE70023C8F80830C8F84831C8F84C31ED
:1020A000002887D009208BE7237803F10F02D2B2F2
:1020B0000C2A32D9F02B8CBF00230123D8F86821D9
:1020C0009A4202D00022C8F84C21C8F8683171E762
:1020D00023884FF47A7202FB03F3C8F86C310023B3
:1020E000C8F8703166E709207047092068E70920C1
:1020F00066E7092064E70F2062E70F2060E70F2002
:102100005EE70F205CE70F205AE70F2058E70F200B
:1021100056E70F2054E70F2052E70F2050E700BF8B
:1021200000F8FF3F2921000891F804C090F86031C1
:10213000826882B330B501F1050E027B624526D874
:102140000AD06BB1D0F8682162B1D0F86421E2B155
:10215000D26842B1012206E0012BF3D10B23F1E753
:102160000D23EFE7002202F12A0C00EBCC04D1F89A
:102170000550DEF8041040F83C50616052320121F5
:1021800040F8221080F8603130BD0022EBE7002BD0
:10219000F8D10C23F6E780F8603170472DE9F04F55
:1021A00087B00746894690460293DDF844B0002187
:1021B0008DF81710012300930DF117024046FFF729
:1021C00057FD039010B90024A2462BE0109B3BB1B1
:1021D000B8F1000F08D0B8F800301B02109A136055
:1021E0006FF00B03039361E00023F6E7109B43B10C
:1021F000B8F1000F09D0B8F8003044EA0324109B6E
:102200001C606FF00B03039350E00023F5E79DF88B
:102210001730A34205D9C6EBC60607EB8606F3695D
:102220009A442C46072C2AD8264600230493651C82
:10223000EDB201230093042304AA29464046FFF788
:1022400017FD0E28EDD00028D0D1CDF80090029BCC
:10225000224604993846FFF79BFD0028D7D0C4EBEF
:10226000C40307EB830300229A61FF22DA61DBF8E3
:102270000030002BCBD1049BCBF80030C7E7BAF17C
:10228000080F05D8BAF1000F08D19DF817302BB10F
:10229000DBF8003013B90123CBF80030DBF8003055
:1022A00023B987F80CA09DF817307B73039807B00B
:1022B000BDE8F08F002800F0D4802DE9F04385B010
:1022C0000C4615461E460746002900F0CC80002B20
:1022D00000F0CB80042A00F2CA80D0F8048003A862
:1022E00007F058FF7B7C013B052B00F2A880DFE85C
:1022F00003F003738EA69CAF236899B2C3F30A045C
:102300006FEA03094FEAD979684A1A40002A40F077
:10231000B080002B07DBD8F8082022B1B8F82421C0
:10232000A24240F0A880002B1FDB11F4F06F00F0F8
:10233000A480A4F2011292B27F2A40F2A080A4F2FB
:10234000815292B27E2A40F29C80A4F2016292B243
:102350007E2A40F29880A4F5DC6292B21F2A40F2F5
:102360009480B4F5E06F00F29280002B04DB98F8C3
:102370000D20002A00F08D80D8F808204A4520D092
:10238000B8F82221A24221D0002B23DB98F84C314F
:10239000B8F82011D8F80400F02B8CBF00230123DB
:1023A000019398F80C3000930023224603F028FB99
:1023B000002870D0C8F84801C8F80890A8F824414F
:1023C0003DE0B8F82421A242DAD138E023F07F02C0
:1023D0000392D9E70024D9E7227802F10F03DBB298
:1023E0000C2B5AD9D8F84831F02A8CBF0021012192
:1023F0005961FF2388F8593188F84C210123C8F826
:1024000050310023C8F86831C8F8643117E0D8F8B3
:102410000830002B43D12388642202FB03F3C8F861
:102420005C310023C8F8643109E023884FF47A72E4
:1024300002FB03F3C8F860310023C8F86831334663
:102440002A4603A93846FFF71EFB05B0BDE8F08316
:102450002378D8F8082022BBF02B24D888F85831EC
:10246000EDE7092070470920EFE70920EDE7092093
:10247000EBE70F20E9E70F20E7E70F20E5E70F2064
:10248000E3E70F20E1E70F20DFE70F20DDE70F2074
:10249000DBE70F20D9E70920D7E70F20D5E70F208A
:1024A000D3E70F20D1E70F20CFE700BF00F8FF3FB1
:1024B0002DE9F04F85B0D0F8483103F1050A90F8C6
:1024C0004CB10BF1FF3B5FFA8BFB002480460DE023
:1024D00000230293039302A91FE02A4602A9504653
:1024E00007F058FE27E0AA440134E4B298F80D3012
:1024F000A34230D9A146C4EBC40080001030404450
:10250000C4EBC40308EB8303DD699E69082E00D980
:102510000826EDB2AE42DBD85146C9EBC90708EB3D
:1025200087070023FB6101AB3246D7F824C0E047A0
:10253000FD61AE42D1D809F13C0358F82330002B9D
:10254000D1D0BBF1FC0FCED9C14499F81021197834
:102550000A431A70C7E70023C8F85031D8F8603131
:10256000C8F86831D8F85C31C8F86431D8F8481137
:10257000D8F8040003F066FA05B0BDE8F08F00005B
:102580002DE9F04F8BB00593BDF850B0179EBDF804
:102590006090002800F0E3800D46174604460029AD
:1025A00000F0E080002A00F0E080159B002B00F096
:1025B000DF80169B002B00F0DE80002E00F0DE8016
:1025C0004FF4BA72002107F00DFE27606660002309
:1025D000099309AB0193199B00930123169A29468D
:1025E0002046FFF7DBFD074618B138460BB0BDE8C3
:1025F000F08F0023089301210091042308AA159865
:10260000FFF736FBA8B9089B6FEA030A4FEADA7AAC
:10261000C3F30A08002B1ADB627B12B1B8F1000F7A
:1026200015D1DDF824A0BAF1000F0ED101220992D4
:102630000DE0199B33B1159B1B881B0243F001036E
:10264000199A13606FF00B07CFE74FF0000A099A51
:1026500052B12068012A00D0134600934FF4024380
:102660001A220121FEF7C0FDBAF1000F09D0B8F11E
:10267000000F08D02BF07F039BB2984503D1D846BA
:1026800001E04FF000083F4B0293019400230093B8
:1026900040F2FF7342464946304603F077F9074659
:1026A0000028A2D1C4F808A0FE238DF81F30012312
:1026B00000930DF11F0202211598FFF7D9FA074682
:1026C000002840D1059BC4F864319DF81F30F02BE1
:1026D0008CBF00230123C4F868310023ADF81C30FF
:1026E00001260096022307AA05211598FFF7C0FAD4
:1026F000BDF81C304FF47A7202FB03F3C4F86C315E
:10270000C4F81861C4F81C51A4F82091A4F822B1AF
:10271000A4F82481C4F828411B4BC4F82C311B4B6E
:10272000C4F83031C4F83841194BC4F83C31194B66
:10273000C4F8403104F59473159A936004F59C74C1
:10274000169B9C6051E7199B33B1159B1B881B029C
:1027500043F00203199A13606FF00B0745E74FF03F
:10276000FF3742E74FF0FF373FE74FF0FF373CE7D7
:102770004FF0FF3739E74FF0FF3736E74FF0FF37BD
:1027800033E700BF292100084B1D0008751F000812
:10279000291A0008B91E00082DE9F04F89B0074634
:1027A00003918268002A00F0A980002B00F0A68027
:1027B000129921B9D0F86811002940F09F8097F84C
:1027C00060310A2B10D9B3F10B0418BF01240C2B74
:1027D00015D048F220233A7B009204222146386823
:1027E000FEF702FD87F86041D7F8683153B1D7F89A
:1027F0006431D3B1DB68DBB10023029304E048F21B
:102800001023E8E7002302930022029B523357F87B
:102810002330002B4AD0029B03F12A0A07EBCA0A95
:102820005233002447F8234024E000230293EBE7CF
:1028300001230293E8E7F6B2B1452DD851464FEA9D
:10284000C508C5EBC50307EB83030022DA61D3F8A3
:1028500028B0C5EBC5008000103005AB4A463844AF
:10286000D847A8EB050807EB8808C8F81C60B244F5
:102870000134E4B27B7B0122A342C6D92546C4EBD6
:10288000C40307EB8303DE69D3F81890B9F1080F8E
:10289000D1D94FF00809CEE70023069307933246BB
:1028A000514606A807F076FC06A9C8E7D7F86C31B0
:1028B0006BB37AB1D7F87021934203D30123C7F8E1
:1028C000703124E000920023172219463868FEF781
:1028D0008BFCF3E7D7F87021CAB1934217D903995B
:1028E0000A44C7F87021934211D2009248F2502353
:1028F000172201213868FEF777FC08E002B133B9EE
:102900000023C7F84831C7F84C31C7F8703109B017
:10291000BDE8F08F2DE9F04F89B00393BDF848A0D2
:10292000139E159FBDF85890002800F00F810D46AA
:1029300090460446002900F00D81002A00F00E8127
:10294000002E00F00F81149B002B00F00F81002F50
:1029500000F010814FF4B672002107F043FCC4F878
:10296000008067600023079307AA0192179A0092DC
:10297000149A29462046FFF711FC029018B10298DC
:1029800009B0BDE8F08FFE238DF81B3001230093C2
:102990000DF11B0202213046FFF76AF9002849D1E8
:1029A0009DF81B300F33DBB20C2B02D8FE238DF8C1
:1029B0001B309DF81B3084F84C310121C4F85011B4
:1029C000002305930091042305AA3046FFF750F930
:1029D000029000283AD1059B6FEA030B4FEADB7B9C
:1029E000C3F30A08002B0BDB627B12B1B8F1000FB6
:1029F00006D1DDF81CB0BBF1000F33D101220792E4
:102A0000079A52B12068012A00D0134600934FF470
:102A100002431A220121FEF7E7FBBBF1000F24D08D
:102A2000B8F1000F23D02AF07F039BB298451ED146
:102A3000D0461CE0179B2BB133881B0243F00203E6
:102A4000179A13606FF00B03029398E7179B2BB153
:102A500033881B0243F00103179A13606FF00B03D6
:102A600002938CE74FF0000BCAE74FF0000894F890
:102A70004C31F02B8CBF002301230193237B009367
:102A8000002342464946384602F0BAFFC4F84801DE
:102A9000002873D0C4F808B00027ADF81270ADF864
:102AA00010704FF0010BCDF800B002230DF11202AF
:102AB00003213046FFF7DCF8CDF800B0022304AA6A
:102AC00005213046FFF7D4F8BDF81230642202FB2E
:102AD00003F3C4F85C31BDF810304FF47A7202FB96
:102AE00003F3C4F8603184F85871CDF800B05B4648
:102AF00004F5AC7206213046FFF7BAF8039BC4F820
:102B00005431FF2384F85931C4F81871C4F81C51AA
:102B1000A4F82091A4F822A1A4F82481C4F82841A3
:102B2000184BC4F82C31184BC4F83031C4F8384174
:102B3000164BC4F83C31164BC4F8403104F594737D
:102B4000B36004F59C74149B9C6018E74FF0FF334E
:102B5000029314E74FF0FF33029310E74FF0FF3377
:102B600002930CE74FF0FF33029308E74FF0FF3377
:102B7000029304E74FF0FF33029300E74FF0FF3377
:102B80000293FCE64B1D0008B5220008291A000834
:102B9000B91E00088268002A00F08280002B7FD0D6
:102BA00010B590F84C41631EDBB2FC2B10D9D0F865
:102BB000603153B1D0F868318B4217D95B1AC0F835
:102BC000683113B90123C0F85031D0F8503133B314
:102BD000FD2C2BD9D0F864318B4222D9591AC0F878
:102BE0006411D0F8503103B1E9B110BD0023E6E71C
:102BF0000133DBB2427B9A42EAD903F13C0250F83E
:102C00002220002AF4D092F800C0C21892F81021B5
:102C10001CEA020FECD10123C0F85031D8E70023A1
:102C2000E8E70021DBE7FFF743FCDEE7D0F85431AB
:102C3000002BDAD0029A002AD7D034B9D0F850311C
:102C4000002BD2D0FFF734FCCFE790F85921FF2AB0
:102C50000ED090F85921FE2A18D0531EDBB280F80E
:102C60005931002BC1D180F85941FFF721FCBCE755
:102C70005A7C32B190F858211AB1FE2280F85921BD
:102C8000E7E76208013280F85921E2E79A7C90F880
:102C900058319A42A9D180F85941FFF709FCA4E7BD
:102CA0000123C0F850310023C0F86831C0F8643106
:102CB000FF2380F8593170472DE9F04184B0054673
:102CC000084611461F460A9A0B9EEB6C93420CD0A5
:102CD000EA642E65002A0DDB92B2002E0CDBB6B240
:102CE00062B15EB101232B610BE02B6DB342EFD1DA
:102CF00000241EE00022F0E70026F1E700222A610E
:102D00001646104B029301954FF00008CDF8008055
:102D100040F2FF7302F03AFE0446CDF80480082327
:102D20000093434632463946286802F069FE6860DF
:102D300018B1204604B0BDE8F081C5F810804FF00E
:102D4000FF34F6E7FD2E0008002800F0A980F0B55A
:102D500083B00C4617461E460546002900F0A280A7
:102D6000002B00F0A1804068697C032900F29E805E
:102D7000DFE801F002054889042003B0F0BDD4F873
:102D800000C01FFA8CFECCF30A01B0F84C30C3F33C
:102D90000A02594B0CEA0303002B40F08980BCF176
:102DA000000F04DB036913B1914240F08380BCF152
:102DB000000F19DB1EF4F06F7ED0A1F201139BB25D
:102DC0007F2B7BD9A1F281539BB27E2B78D9A1F2C4
:102DD00001639BB27E2B75D9A1F5DC639BB21F2BDF
:102DE00072D9B1F5E06F71D8B0F84A30B0F8482028
:102DF000416CD0F850E0CDF804E0CDF800C0FFF70A
:102E00005BFF46E0D4F800C01FFA8CFECCF30A0149
:102E1000B0F85030C3F30A02374B0CEA0303002B1F
:102E200056D1BCF1000F03DB03690BB1914251D1C4
:102E3000BCF1000F19DB1EF4F06F4DD0A1F20113AD
:102E40009BB27F2B4AD9A1F281539BB27E2B47D9EB
:102E5000A1F201639BB27E2B44D9A1F5DC639BB246
:102E60001F2B41D9B1F5E06F40D8B0F84A30B0F827
:102E70004820416CCDF804C0D0F84CC0CDF800C05B
:102E8000FFF71AFF05E0012A32D194F90030002B38
:102E900030DD33463A4621462846FEF7F4FD6CE71E
:102EA00009207047092068E7092066E70E2064E7DB
:102EB0000F2062E70F2060E70F205EE70F205CE73E
:102EC0000F205AE70F2058E70F2056E70F2054E74E
:102ED0000F2052E70F2050E70F204EE70F204CE75E
:102EE0000F204AE70F2048E70F2046E70F2044E76E
:102EF0000B2042E70F2040E700F8FF3F0A79082A3D
:102F000000D0704710B504464B1D4979802902D086
:102F1000816B19B110BD00230375FBE719463C30E6
:102F200007F038F90123A363F4E7000070B582B01D
:102F300004460D46D0F8A020006F002841D0636EF3
:102F40005BB1A16E8B4208D005D2484B2B600123A8
:102F50002375002087E0464BF8E7236A94F9281090
:102F6000002903DB0BBBA36E23622FE013B1A16E1C
:102F70009942F7D2911C2029F4D8501CC4F8A00023
:102F80002244002682F87C60A26E0132A2660BB158
:102F90009A4207D2C4F8A0102044002380F87C3065
:102FA0000132A266A36E236210E0A26E9A420DD097
:102FB00005D92E4B2B6001232375002053E02C4BA9
:102FC000F8E7636E13B1A26E93422FD300230193EF
:102FD00014F118002FD094F8283013F03C0F2CD1A6
:102FE00000231E4623B12368EFF310825A6372B6A2
:102FF00001ABD4F8A02004F17C01D4F830C0E04744
:1030000003461EB12268526B82F310880022C4F876
:10301000A0205A1CD2B2012A11D8206F10B1B3F1EE
:10302000FF3F14D0F0B9C3B101201CE00F4B0B607F
:103030000123237517E00023D3E70123D1E71846C6
:10304000FEF708FE28600123237500200BE0084BE3
:103050002B6001232375002005E0044B2B60012326
:10306000237500E0012002B070BD00BF120007060A
:10307000130007062DE9F04F85B00191D0F8A0703C
:10308000D0F8A480A7EB0809056F002D75D1044680
:103090001646914501D3012570E000F17C0A4A46AD
:1030A0000AEB0801504607F083F80023C4F8A43067
:1030B000C4F8A090A8EB0702203203930AEB09089A
:1030C00014F118002ED094F8283013F03C0F2BD1B7
:1030D00000239A4623B12368EFF31081596372B637
:1030E00003AB4146E76AB8478346BAF1000F03D005
:1030F00023685B6B83F310880BF10103DBB2012BB8
:1031000014D8039B1BB194F92820002A16DB039BDB
:103110004B44C4F8A03023B3BBF1FF3F21D00123BF
:10312000236722E00023D4E70123D2E75846FEF7C5
:1031300091FD019B1860012323751FE0002208F810
:1031400003204046FDF704F8034600B90123039A23
:103150009A42DCD90393A26E134423624FF0000B12
:10316000D5E700222267B34201D3012506E0054BD3
:10317000019A13600123237500E00125284605B05C
:10318000BDE8F08F470004062DE9F04F89B0139F8A
:10319000BDF85090BDF858A0002800F0AA8016464F
:1031A0000446002900F0A880002F00F0A880159A9E
:1031B000002A00F0A78081600373BDF848204FF417
:1031C0007A7101FB02F2426700220275002E5BD089
:1031D000B6F80080B8F5905F60D008F56D43FF3316
:1031E0009BB27E2B00F29780012500952B460DF1B6
:1031F000170200213046FEF73BFD8346009504236D
:1032000006AA29463046FEF733FD039000950423B5
:1032100007AA02213046FEF72BFDBBF1000F5CD15F
:103220009DF81730023BDBB2AB4256D8039B002B14
:1032300053D1002851D1069B002B55DBC3F30A085C
:10324000079D002D53DBC5F30A056465334BA36569
:10325000334BE36504F15403B3600023A363676455
:10326000A4F84890A4F84AA0E3642365159B236062
:103270000195CDF8008053464A4639462046FFF76F
:103280001BFD09B0BDE8F08F5AB2002A3DDD03F501
:10329000C06803F5B06501230361DEE75AB2002A76
:1032A00036DD03F5C06803F5B0654FF0010BC0F8DB
:1032B00010B0CDF81C80CDF800B0042307AA594601
:1032C0003046FEF7F0FC0795CDF800B0042307AABE
:1032D00002213046FEF7E7FCBFE7179B0BB1C3F8AE
:1032E00000806FF00B00CCE74FF00008A8E7002546
:1032F000ABE74FF0FF30C4E74FF0FF30C1E74FF0CE
:10330000FF30BEE74FF0FF30BBE74FF0FF30B8E7CC
:103310004FF0FF30B5E74FF0FF30B2E7291A000851
:10332000492D0008F0B585B0002800F0058304465B
:1033300000230393806B236923B1257D15B90028F1
:1033400000F0C18101B15BB900252575A563012D90
:1033500000F0BB81012D00F0C682284605B0F0BD0B
:10336000002800F07E81237D93B994F83C3003F06F
:10337000F002202A2FD0402B31D0954B039301230C
:1033800023750025039B73B315B1039B002B63D0FA
:10339000237D002B00F06281237DDBB2012B00F046
:1033A0005D81237D113B122B00F28881DFE813F051
:1033B0007A008601FD00860186018601860186016C
:1033C00086018601860186018601860186018601C5
:1033D000540186016D01112323750025D2E72123B5
:1033E00023750125CEE794F83E3094F83D1041EA6C
:1033F0000321A18694F83F3084F83630A068FEF7A8
:1034000073FB002304F1180294F83610FEF7A0FBBA
:1034100048B994F8283013F0030F0AD16D4B039389
:1034200001232375B0E7FEF715FC039001232375F4
:10343000AAE73DB113F0010F04D1674B03930123B9
:103440002375A1E7002D9FD113F0020F9CD1634B90
:1034500003930123237597E7C4F8A030C4F8A43080
:10346000A3662367072203A92046FFF703FE00286F
:103470008ED0236F7BB1236A63661BB9D4F8A0306A
:10348000636685E7D4F8A020934281D0544B039320
:10349000012323757CE794F92820002A00DB236AA6
:1034A000636675E794F83C3013F0020F5DD0266A2E
:1034B00013F0010F34D0C3F38103C3F104050023DB
:1034C0000193ADF808302A4604F1400101A806F046
:1034D00061FE94F8282094F92830002B27DB86BB66
:1034E00025620023009314F1180034D012F03C0F31
:1034F00033D11E4623B12368EFF310825A6372B6AC
:10350000276B6B462A4601A9B8471EB123685B6B3F
:1035100083F3108818BB12232375012323679DE0D2
:10352000731E022B01D90425C9E73546C7E70EB142
:10353000B542D4D2761B012E00D002263544256236
:10354000CFE7B542CDD004D9264B03930123237591
:1035500084E0254BF9E70023CBE70123C9E7FEF719
:1035600079FB03900123237578E013F0010F15D048
:10357000226A236C63669AB19A4204D2194B039370
:10358000012323756AE09A420AD994F92830002B66
:1035900006DB154B0393012323755FE0002363666D
:1035A000122323750023236758E094F83C3013F06E
:1035B000E00F4CD103F00102226703F0100294F8EF
:1035C0006C10914214D0094B03930123237545E0FD
:1035D00001000405000001060100010602000106C9
:1035E0004700040612000706130007060000030543
:1035F0006FEA530303F0070504F17C03D4F8A0003D
:103600002A4604F13D01184406F0C4FDD4F8A03068
:103610002B44C4F8A030A26E1544A566226A32B1CC
:10362000954204D9A84B03930123237516E0226F1A
:103630001AB9C3F12003082B06D800231A4603A9A0
:103640002046FFF773FC48B11423237506E09F4B17
:1036500003930123237501E0222323750022A2672F
:10366000A263A36F616F8B4201D21A44A267A36F5A
:10367000994203D8964B03930123237563681B6912
:10368000002B40F05781012561E694F83C3003F0AF
:10369000EF02602A04D08D4B039301232375DDE7ED
:1036A00003F0100394F86C209A4204D0894B0393E2
:1036B00001232375D2E724232375CFE7834B03939C
:1036C00001232375CAE7002541E663680022C3F899
:1036D0000520C3F80920237D123B122B3FF63AAE9A
:1036E00001A252F823F000BF353700085533000817
:1036F0007F3700085533000855330008553300085C
:103700005533000855330008553300085533000879
:103710005533000855330008553300085533000869
:103720005533000855330008B737000855330008F3
:1037300029380008636860225A71636894F834205D
:103740009A71A38E62681B0AD371636894F836205D
:103750001A720023A3676168206802F073F9236F6F
:1037600013B100252575F8E5002384F86C30A366B5
:10377000C4F8A030C4F8A43013232375EAE594F804
:103780006C30626843F02003537194F86C306BB96D
:10379000102384F86C300023A3676168206802F06E
:1037A00051F9236F23B100252575D6E50023F0E7F5
:1037B00013232375CEE5636E5A1E032A1DD97BB3EE
:1037C0006268412151716268C2F80930002384F8AF
:1037D0006C30A36723232375636894F834209A71AF
:1037E000A38E62681B0AD371636894F836201A723C
:1037F0006168206802F026F9ACE5C3F10403DBB28E
:103800009B00DBB2626843F0430353716068626EF1
:1038100004F17C01093006F0BDFC00252575DBE7CD
:10382000636840225A71D1E70023072203A920468A
:10383000FFF720FC00283FF48DAD626894F86C30EF
:103840005371A3B9102384F86C30D4F8A060D4F875
:10385000A430F61A062E0CD9236F0BB1072E08D010
:103860000023A367232323752F4607260EE000239A
:10387000E9E76268C6F10703DBB25B00DBB25179AE
:103880000B4343F00103537100272775606804F16F
:103890007C03D4F8A41032461944063006F07AFCB2
:1038A000D4F8A4303344C4F8A430A36E1E44A666F2
:1038B000636E002B38D09E420ED9034B0393012335
:1038C00023753D4646E500BF1200070601000405CA
:1038D000000004050000030537BB9E4224D2184BAC
:1038E000039301232375237DDBB2012B7FF435ADD8
:1038F000636880225A71636894F834209A71A38EA9
:1039000062681B0AD371636894F836201A72636880
:10391000039AC3F809206168206802F093F8002335
:1039200023756FF0090518E56168206802F08AF8D0
:103930003D460FE504250DE56FF001050DE500BFDF
:10394000130007060B79427C22B95BB143F04003B8
:1039500003727047012B03D063F07F03037270473B
:103960004B798374C368B3FA83F35B09C3600123A3
:1039700043607047D8B32DE9F04383B00C46174637
:103980001E460546437CA3BBA9B3012A35D1C6B365
:10399000D0F8048091F80090B9F1010F33D0B9F15B
:1039A000F00F32D8D8F81C301B6883BBB8F844201D
:1039B000B8F84C10D8F848000193B9EB030C18BFC5
:1039C0004FF0010CCDF800C002F01AF8C8F828003A
:1039D00040B188F8119033463A4621462846FEF712
:1039E00052F80BE00023C8F82430092006E0092033
:1039F0007047092002E0092000E0092003B0BDE87B
:103A0000F0830920FAE70F20F8E70F20F6E71720E8
:103A1000F4E70000002800F081802DE9F04F85B028
:103A20000C4615461E460746437C002B78D10029DC
:103A300078D0042A78D1002E7AD0D0F804900B6880
:103A400099B2C3F30A0803F0804AC3F3807B424A69
:103A50001A40002A6ED111F4F06F6DD0A8F2011354
:103A60009BB27F2B6AD9A8F281539BB27E2B67D978
:103A7000A8F201639BB27E2B64D9A8F5DC639BB2EC
:103A80001F2B61D9B8F5E06F60D8D9F8243033B175
:103A9000BAF1000F03D0B9F84430434558D1B9F812
:103AA0004430434510D1C9F824B0BAF1000F04D016
:103AB000002389F81230C9F8183033462A462146C7
:103AC0003846FDF7E0FF30E0B9F83010D9F82C00A7
:103AD000224B0293CDF804900023009340F2FF7331
:103AE000424601F053FFA8BB99F81120B9F84C10D9
:103AF000D9F8480000230193D21A18BF012200927E
:103B0000424601F07DFFC9F8280010B1A9F84480B1
:103B1000C9E70023C9F82430092006E009207047CE
:103B2000092002E0092000E0092005B0BDE8F08F7F
:103B30000920FAE70F20F8E70F20F6E70F20F4E757
:103B40000F20F2E70F20F0E70F20EEE70F20ECE761
:103B50000F20EAE70920E8E700F8FFBF4539000831
:103B60002DE9F04F87B0DDF84490DDF84880BDF8CE
:103B70004CA0BDF854B0002800F0BF800F46154699
:103B80001E460446002900F0BB80002A00F0BB80DE
:103B9000002B00F0BB80149B002B00F0BA80B8F122
:103BA000000F00F0B9806022002106F01BFB80238B
:103BB000059301230093042305AA00212846FEF75C
:103BC00057F890BB6463564BA363564BE36304F111
:103BD0003403AB600023042219463046FEF77BF81D
:103BE000E06150B30023042219461098FEF773F8E1
:103BF0002062109B03B140B300238DF81330B9F15C
:103C0000000F40D0012300930DF11302002148461C
:103C1000FEF72EF810BB9DF81330012B27D0F02BA8
:103C200028D9F0238DF8133024E0169B13B12B888C
:103C3000169A13606FF00B0546E0169B13B133889C
:103C4000169A13606FF00B053EE0169B1BB1109B9C
:103C50001B88169A13606FF00B0535E0169B1BB19D
:103C6000B9F80030169A13606FF00B052CE00223B0
:103C70008DF8133024652A4B63652B4BA36504F143
:103C80005003C9F808309DF8133063742760059A13
:103C9000C2F380736362C2F30A02A4F84420C4F83A
:103CA0002C80A4F830A0149BA364A4F84CB01F4B44
:103CB000029301940023009340F2FF735146404663
:103CC00001F064FE054618B1284607B0BDE8F08F44
:103CD000002301939DF81320D21A18BF01220092ED
:103CE000059AC2F30A025946149801F089FEA062AF
:103CF0000028E9D14FF0FF35E6E74FF0FF35E3E765
:103D00004FF0FF35E0E74FF0FF35DDE74FF0FF35CF
:103D1000DAE74FF0FF35D7E74FF0FF35D4E700BFC4
:103D2000291A0008153A00087539000845390008B5
:103D300030B583B0044600296CD083691A4493429D
:103D400000D282616368E3B10023A361636001254F
:103D5000E3693BB11B682BB1626A002A2CD0A269CF
:103D60009A4210D2236A002B3DD01B68002B3AD018
:103D7000A269934237D2636903B9022501236361C3
:103D800033E00025E4E7A37C0133DBB2A374627C5B
:103D9000934201D90123A3740023A361E368B3FA1A
:103DA00083F35B09E360A36AA27C5A71A16AA06CE9
:103DB00001F048FE0125D5E7227C012AD2D103EB90
:103DC0005302934201D94FF0FF32A3699342C9D9FC
:103DD00000934FF40143182201212068FDF704FAF3
:103DE00002232374BEE700236361237A3BB9012DCC
:103DF00015D1237C022B15D0012323740FE00093EF
:103E000048F24023192201212068FDF7EDF9002333
:103E10002372ECE7002545600572857485612846AC
:103E200003B030BD002100910B4618222068FDF739
:103E3000DBF9E1E70B79062B00D07047D1F80530AC
:103E40000360B1F80930838001238361F5E7000046
:103E5000002836D08446407C002834D1002934D054
:103E6000042A34D1002B34D070B5DCF80460086823
:103E700085B2C0F30A0E1F4C044064BB15F4F06F0A
:103E80002BD0AEF20114A4B27F2C28D9AEF281540B
:103E9000A4B27E2C25D9AEF20164A4B27E2C22D924
:103EA000AEF5DC64A4B21F2C1FD9BEF5E06F1ED89E
:103EB000C40F3461C0F3807070616046FDF7E3FDAC
:103EC0000AE009207047092070470920704709203F
:103ED0007047092070470F2070BD0F20FCE70F20AE
:103EE000FAE70F20F8E70F20F6E70F20F4E70F209E
:103EF000F2E700BF00F8FF3F00283ED0F0B587B0E2
:103F00000D4616461F460446002939D0002A3AD0ED
:103F10002C22002106F066F901230093042305AA50
:103F200000212846FDF7A4FEA0B9E461174B2362E7
:103F3000174B636204F11C03AB60059DC5F30A02D5
:103F4000EB0F2361C5F3807565610021A1614BB959
:103F500007B0F0BD0C9B13B12B880C9A13606FF067
:103F60000B00F5E70B4B02930194009140F2FF73B5
:103F70003946304601F00AFDEAE74FF0FF3070475E
:103F80004FF0FF30E4E74FF0FF30E1E7291A000877
:103F9000513E0008353E000871B1036963B1836981
:103FA00063B18288036823F07043836082810023B9
:103FB000C38183610120704700238361C2B1C3893B
:103FC0001A440D4BA3FB02139B094FF47A7101FBBA
:103FD0001322C281826813448360084A934209D93C
:103FE000074A1A4482608389013383810020704725
:103FF0001046704700207047D34D6210FF5B2605C6
:1040000000A4D9FA034620B10020186058609860D7
:1040100070474FF0FF30704770B404680C44046080
:1040200000263146B4464CE002214FF0000C61E01E
:104030004CF0040C68E041F0040165E00024447198
:1040400062E04CF0080CC4790134E4B2C471013C64
:10405000092C0ED8DFE804F00B1C0B1C0B1C0D0DFB
:104060000D1F41F00801EEE700248471EBE74CF0EE
:10407000100C047A0134E4B20472013C0B2C1BD8FE
:10408000DFE804F00C0F0C0F0C0F0C0F1A1A1A12A9
:1040900041F01001EDE70024C471EAE74CF0200C78
:1040A0000AE041F0200107E00024047204E001F07E
:1040B0007E0C817A01F07E01002D3FD14CF0010C85
:1040C000012604684CF24F35AC423AD9417A01F0EE
:1040D0000105A4F54344503C046004790134E4B282
:1040E0000471032CE3D90024047111F002019BD167
:1040F0004FF0020C44790134E4B24471022C9AD09E
:10410000062C9BD0012C93D084790134E4B28471C5
:10411000013C072C97D801A656F824F0434000082C
:10412000634000084340000863400008474000081F
:1041300047400008474000086940000841F001017D
:10414000BEE75EB3039CE4B912B90CF0010419E0B8
:10415000059C14B10CF0200414E0069C14B10CF082
:1041600010040FE0079C14B10CF008040AE0049C52
:1041700014B10CF0040405E0089C8CB10CF00204AE
:1041800000E0012473B101F001030CB14CF0800C8C
:104190000BB141F0800180F809C0817270BC70479A
:1041A0000024EFE7099B13B101F01003EDE7042AA7
:1041B00005D07F2A06D0052A07D00023E5E701F0C5
:1041C0000403E2E701F00203DFE70123DDE700BFBC
:1041D000012070470B79082B00D07047436C002BEF
:1041E000FBD101F1050C4B79042B13D0027C002A82
:1041F00040F0938030B5A3F14002112A53D8DFE894
:1042000002F02E32363A52525252525252525252B8
:10421000525252538A7912B1012A1DD07047027C42
:10422000012A09D000220023037443618361C36122
:104230000362002A7BD1704790F84020FF2A01D00A
:104240000022F0E7C26B1278FF2A03D080F84830D2
:104250000122E8E70022E6E7012303747047D1F862
:10426000063043611FE0D1F8063083611BE0D1F8CE
:104270000630C36117E0D1F8062002628169446804
:104280008C4210D18468C1698C420CD1C1689142C2
:1042900009D101684269914205D10122027480F876
:1042A00048300123436430BDC26B1278FF2AFAD133
:1042B00090F84020FF2AF6D18A7A91F80BC091F845
:1042C0000CE01F2A01D9802AEDD1BCF1030FEAD8F6
:1042D000BEF1030FE7D8D1F80640802A13D090F83A
:1042E00034106145DFD14FF0FF31914050F82C5030
:1042F0006C400C42D7D180F834E05AB9F44509D962
:104300000122027406E0002280F8342042628262B8
:10431000C262026380F84830C3E7D1F80510DCF8C8
:104320000420C0F84910C0F84D2080F8483001231F
:104330004364704700B587B01346164A1288ADF83B
:10434000142000228DF816208DF814108DF81530E9
:104350001B0A8DF8163020210F4803F0A2FD05231B
:104360000322A6210D4804F06FFB0028F7D1142387
:1043700002930323019305AB009301230022A6219E
:10438000064804F00BF918B1002007B05DF804FBF3
:104390000120FAE7DCAE0008000C014064060020B2
:1043A00008B181654265704708B181664266704711
:1043B0002DE9F04385B0DDF830900F9F002854D0F0
:1043C0000E4690461D460446002A51D0002B52D07E
:1043D000B9F1000F52D0002F53D01A7893F9003062
:1043E000002B01DCFF2A4FD174220021204605F06A
:1043F000F9FE30687168B268F36820606160A2609D
:10440000E360C4F83880E5632B7884F84030204BB3
:10441000029301940026009640F2FF73BDF8382005
:10442000BDF83410484601F0B1FA0546E76601963A
:10443000082300933346BDF84420BDF840103846A9
:1044400001F0DEFA206768B1124A00212046FFF72A
:10445000ABFF114A00212046FFF7A2FF284605B016
:10446000BDE8F0834FF0FF35EEE74FF0FF35F5E79D
:104470004FF0FF35F2E74FF0FF35EFE74FF0FF3534
:10448000ECE74FF0FF35E9E74FF0FF35E6E700BF17
:10449000D541000835430008D1410008436C002B8A
:1044A00000F0DC8070B50446036F0022C3F80520DD
:1044B000C3F8092090F84820131F5A2B00F2C4803B
:1044C000DFE803F02EC2C2C2C2C2C2C2C2C2C2C2AE
:1044D000C239C24DC276C286C2C2C2C2C2C2C2C242
:1044E000C2C2C2C2C2C2C2C2C2C2C2C2C2C2C2C2AC
:1044F000C2C2C2C2C2C2C2C2C2C2C2C2C2C2C2C29C
:10450000C2C2C230C2C2C2C2C2C2C2C2C2C2C2C21D
:10451000C2BEC2C2C2C2C2C2C2C29BA2A9B0B700BE
:10452000012092E0036F44225A71216FE06E01F086
:1045300089FA002089E090F84A3090F94A20002A50
:1045400009DDE26B13700022236F94F84810597153
:10455000236F9A71E9E7FF2BF3D00122F4E7436D53
:10456000002B75D090F84A5090F84B2075B9052A69
:1045700017D0092A17D83A4931F812603146806DB0
:10458000984790B1A36B1E80294601E000250121C8
:10459000236F94F848205A71236F9971236FDD714E
:1045A000C3E70121F4E70121F2E70125FF21EFE74D
:1045B000436D002B4ED0C36D002B4DD090F84B10A7
:1045C00090F84A2042EA0121006E984700203CE022
:1045D000436E73B1C16B826B12880978806E984705
:1045E00048B10021236F94F848205A71236F9971C4
:1045F0009BE70121F6E70221F4E7036F5A71026895
:10460000036FC3F8062090E7036F5A714268036F87
:10461000C3F8062089E7036F5A718268036FC3F8F5
:10462000062082E7036F5A71C268036FC3F8062041
:104630007BE7036F5A71036F90F840209A7174E71B
:10464000036F4F225A7170E700200023636470BD2E
:104650000020FAE70020F8E70020F6E70020704786
:104660004CAF0008002835D010B50446406801F072
:1046700083F9E06805F076FDA06805F073FD6068D9
:1046800005F070FDE06B05F06DFDA06B05F06AFDB7
:10469000606B05F067FD206B05F064FDE06A05F0D6
:1046A00061FDA06A05F05EFD606A05F05BFDE069F2
:1046B00005F058FD206A05F055FDA06905F052FD92
:1046C000606905F04FFD206905F04CFD204605F0BE
:1046D00049FD10BD704770B50D464021012005F021
:1046E00045FB044600286FD02C21012005F03EFB3D
:1046F000206100286ED03021012005F037FB606179
:10470000002869D01021082005F030FBA0610028A6
:1047100064D05021012005F029FBE06100285FD022
:104720000821112005F022FB206200285BD0A8217F
:10473000012005F01BFB6062002857D02C210120CE
:1047400005F014FBA062002853D06021012005F081
:104750000DFBE06200284FD04FF4BA71042005F041
:1047600005FB206300284AD04FF4B671042005F001
:10477000FDFA6063002845D00C21012005F0F6FA0F
:10478000A063002841D07421012005F0EFFAE06316
:1047900000283DD03821012005F0E8FA6060D0B350
:1047A0000C21112005F0E2FAA060B8B3182109200D
:1047B00005F0DCFAE060A0B30123236041F20416A7
:1047C00005B12E60204670BD00262046FFF74AFF47
:1047D0000024F5E74026F8E76C26F6E79C26F4E788
:1047E0004FF48E76F1E74FF4B676EEE74FF4FA76B3
:1047F000EBE74FF42776E8E74FF43276E5E74FF43E
:104800004A76E2E740F6F806DFE740F6A866DCE71E
:1048100040F6B466D9E740F62876D6E74FF47666D8
:10482000D3E741F22C06D0E7B8B170B584B00C469E
:1048300016460546436800225A61084601F010F802
:10484000029609230193EB6800931123AA6821467D
:10485000686801F019F804B070BD4FF0FF30704780
:10486000C8B100B587B094461A468646436840F200
:10487000E470059008200490039340F2E5700290E4
:104880001020019000936346DEF83C00FFF790FD96
:1048900007B05DF804FB4FF0FF3070472DE9F04F93
:1048A0008BB0BDF85C909DF868601B9F002800F0FD
:1048B000B7801546984604465AB300232360FF2E5E
:1048C00029D073B2002B40F3AE80A06BFFF79AFBA8
:1048D0000346D0B92368002B40F0A880554B1B68D5
:1048E0005A680597049602F1180303930123029373
:1048F00002F16C03019311230093236A0C32616867
:10490000E069FCF7C9FB034640B118460BB0BDE8AF
:10491000F08FC569D1E701232360D6E7454B1B68BB
:1049200059686368089706F5E062079207220692C5
:1049300005930022049203920293BDF8583001932C
:10494000BDF85430009333462A4690312069FCF775
:104950004FFF03460028D8D1364B1B685A6803978F
:10496000082302936168019184320092A26929466A
:104970006069FCF7FDFD03460028C6D12D4B1B687E
:104980005A68B432002826DD2A4B1B685968009704
:10499000022362686031A06AFFF7AEFA034600287E
:1049A000B3D1244B1B685A686368069700210591B0
:1049B000049301210391029302F1A803019302F1F0
:1049C0003C03009302F1300324322946E06AFFF7EA
:1049D000C7F8034699E702F10C0B61681FFA80FAE9
:1049E00005970AF106039BB2049303910AF10703AA
:1049F0009BB202930191CDF80090334641464FF0AF
:104A0000A80CD4F824E00CFB00E0FEF7BDFB034645
:104A100000287FF47AAF0AF1010000B25A46B1E7EC
:104A20004FF0FF3371E74FF0FF336EE76FF0120383
:104A30006BE700BF280000202DE9F04F87B0DDF8BC
:104A4000409000287AD00F4690461E4604465BB23E
:104A5000002B33DD0368002B30D13A4B1B685A68BA
:104A600002F1CC0CFC32002003282FDC831C1B023B
:104A70009BB233449BB20CF10C0A02F10C0B85B2D1
:104A8000CDF81490E91C89B20491616803910292F7
:104A9000CDF804C00093E36A3A4641464FF4BA7C2D
:104AA000D4F830E00CFB00E0FDF76AFD0346002877
:104AB00040D1681C00B25A46D446D5E7236813B1EA
:104AC0006FF0120336E04FF0FF3333E01D4B1B68ED
:104AD0005A6802F5967C02F5AE720020032828DCA5
:104AE00085B22B029BB233449BB203F5C0739BB2D9
:104AF0000CF10C0A02F10C0BCDF81490A91C89B230
:104B00000491616803910292CDF804C00093E36AB6
:104B10003A4641464FF4B67CD4F834E00CFB00E052
:104B2000FDF7F8FE034628B9681C00B25A46D44681
:104B3000D4E70023184607B0BDE8F08F4FF0FF33ED
:104B4000F8E700BF280000202DE9F04F8BB00446A5
:104B500015461E460369002B34D093F900308DF8BA
:104B600027307F2B33D0052B2ED04FF00008606804
:104B700000F0C2FFE06BFFF791FC58BB4FF000095B
:104B800023686268518AE26B3AB3127C012A27D00B
:104B90004FF0000EA06B33BB9DF92720C1F3800AB4
:104BA00040F20337394214BF4FF0010B4FF0000BB6
:104BB0000BBBE169C9B1C97811F0010F18D04FF0F2
:104BC000010C1AE00023CAE74FF00108CFE74FF0CD
:104BD0000108CCE74FF00109D2E74FF0000ED9E70A
:104BE0004FF0010ED6E70022D8E74FF0010C04E0A9
:104BF0004FF0000C01E04FF0000C53B9E3693BB3F8
:104C0000DB7813F0080F25D113F0100F24D1002109
:104C100000E00021E3690BB3DB680BB31F78079654
:104C200000230693FF1A18BF012705970491CDF8BA
:104C30000CC00293CDF804B0CDF800A0734629460D
:104C4000FFF7EAF923686BB148460BB0BDE8F08F77
:104C50000121DFE70121DDE70121DBE70027DEE7B6
:104C60000027DCE733462A464146E069FCF71DFB96
:104C700033462A460DF127012069FCF743FE8146A1
:104C80009DF927307F2B14D0052B0FD04FF0000853
:104C900000278FB133462A4641466069FCF7E0FCA5
:104CA0002A464146A06AFFF777F9CDE74FF00108A1
:104CB000EEE74FF00108EBE7606A33462A464146CB
:104CC0004FF0A80C0CFB0700FEF72CFB0137FFB2DE
:104CD000DFE738B50568EDB90446134602699AB1B5
:104CE00092F900207F2A13D0052A0FD000200A460F
:104CF0000146E06AFFF71CF801280ED002280AD10D
:104D0000606800F0C9FE06E00022EDE70120EEE752
:104D10000120ECE70025284638BD0125FBE72DE9F9
:104D2000F04383B0984603680BBB05460E46174612
:104D3000036953B193F90090B9F1050F14BF4FF017
:104D400000094FF0010900240FE04FF00009F3E7DC
:104D5000286B00964B46424639464FF4BA7C0CFB12
:104D60000400FDF719FD013424B2032CF0DD03B07B
:104D7000BDE8F0832DE9F04383B0984603680BBB90
:104D800005460E461746036953B193F90090B9F1F1
:104D9000050F14BF4FF000094FF0010900240FE088
:104DA0004FF00009F3E7686B00964B4642463946E0
:104DB0004FF4B67C0CFB0400FDF7ECFE013424B28A
:104DC000032CF0DD03B0BDE8F08301207047000044
:104DD0000449086802440A60B2F5006F01D9012253
:104DE0001A607047140500202DE9F04188B00F4685
:104DF00015461E464FF0000847E0A5F58073FF2BCF
:104E000003D82D4BA2221A7045E0A5F50073FF2BA5
:104E100003D8294BA4221A703DE0A5F54073FF2B5F
:104E200039D8254BA6221A7035E00BB9102E03D8BD
:104E30000F2E03D8B4B202E0102400E010240122A7
:104E400020211E4803F02DF8052303221A4801787B
:104E50001B4803F0F9FD0028F6D164230293019466
:104E600004AB00930123AAB213490978144803F054
:104E700047FCE8B9224604A907EB080005F08AF9C7
:104E8000361B254444441FFA84F88EB1FF2DB4D854
:104E9000094BA0221A7015F00F03C6D0102EC4D9EA
:104EA0002C0901342401A4B2A8B2201A84B2C6E7A6
:104EB00008B0BDE8F08100BF00000020000C0140F8
:104EC000640600202DE9F04F8BB0059115461E4673
:104ED000002307E003F128026A44002102F8101CB5
:104EE0000133DBB20F2BF5D90027102465E0A5F5BF
:104EF0008073FF2B03D8404BA2221A7063E0A5F504
:104F00000073FF2B03D83C4BA4221A705BE0A5F57D
:104F10004073FF2B57D8384BA6221A7053E00BB9B9
:104F2000102E5DD8B44200D9B4B2059B03EB070B39
:104F3000A1460DF1180822465946404605F02AF9C7
:104F4000002220212D4802F0ACFF1FFA85FA6423CD
:104F500002930194CDF80080012352462649097836
:104F6000274803F01BFB80460523032222490978CA
:104F7000234803F069FD0028F6D1B8F1000F35D1C0
:104F8000012220211D4802F08CFF6423029301942A
:104F900006AB00930123524617490978184803F0DD
:104FA000AFFB28BB4A4606A9584605F0E3F808BB04
:104FB000A6EB09064D442744BFB29EB1FF2D96D8FB
:104FC0000D4BA0221A7015F00F03A8D0B442A6D240
:104FD0002C0901342401A4B2ABB2E41AA4B2A4E7B0
:104FE0001024A2E701200BB0BDE8F08F0020FAE703
:104FF0000020F8E70020F6E700000020000C014048
:1050000064060020002070472DE9F041002845D0BB
:105010001F460646437C002B43D0002944D0042A77
:1050200045D1002F48D045686B6A002B47D06B6B89
:10503000002B47D00A68284B9A4246D10024A0464C
:10504000224603E0804602220134E4B295F8303073
:10505000A34217D9E86A04EBC40300EB8300737C16
:10506000012B02D0017A8B42EED102B90122437AA0
:1050700013F0010FE8D06B6A296A98470028E1D144
:105080000222E1E7022A03D012BB4FF00E0810E023
:10509000B8F1000F0DD104233B600AE04FF009087E
:1050A00007E04FF0090804E04FF0090801E04FF075
:1050B00009084046BDE8F0814FF00908F9E74FF0D4
:1050C0000408F6E74FF00408F3E74FF01508F0E79F
:1050D0004FF00408EDE700BF736176652DE9F041FC
:1050E000002845D01F460646437C002B43D00029AC
:1050F00044D0042A45D1002F48D04568AB6A002B24
:1051000047D06B6B002B47D00A68284B9A4246D198
:105110000024A046224603E0804602220134E4B285
:1051200095F83030A34217D9E86A04EBC40300EBCA
:105130008300737C012B02D0017A8B42EED102B93D
:105140000122437A13F0040FE8D0AB6A296A98472A
:105150000028E1D10222E1E7022A03D012BB4FF07E
:105160000E0810E0B8F1000F0DD104233B600AE0F7
:105170004FF0090807E04FF0090804E04FF0090874
:1051800001E04FF009084046BDE8F0814FF0090802
:10519000F9E74FF00408F6E74FF00408F3E74FF0A3
:1051A0001508F0E74FF00408EDE700BF6C6F61648D
:1051B000F0B110B404460162019941620299816222
:1051C0000399C1629DF8101080F830102AB1006078
:1051D0000A4941600A498160906063B12461074ACD
:1051E0006261084AA26110349C60002010BC7047C4
:1051F0004FF0FF3070470020F8E700BF291A000881
:1052000009500008DD50000830B583B004464FF067
:10521000FF330193042342690DEB0301C068FFF7DC
:1052200051FE0546042362696946E068FFF7DCFD2C
:10523000019A009B9A4203D125B1002003B030BDF2
:105240000A20FBE70A20F9E730B583B004460D4693
:10525000EFF310834B6372B6436882690168C068DC
:10526000FFF730FE6B6B83F310886268A169E0681A
:10527000FFF7C8FE228AA38843EA0243019304236E
:1052800062690DEB0301E068FFF71CFE054604238D
:1052900062696946E068FFF7A7FD019A009B9A42A0
:1052A00003D125B1002003B030BD0A20FBE70A205E
:1052B000F9E700002DE9F04F8DB004AFFA601D460C
:1052C000FE6C97F850A0D7F854900023FB617860EB
:1052D000002800F0A3800C46002E00F0A380BAF155
:1052E000000F00F0A380B9F1000F00F0A38043632A
:1052F0001046FFF76AFD98B1CDF80CA002964F4B0F
:1053000001934F4B0093BB6C2A4621467868FFF708
:105310004FFF386160B138692437BD46BDE8F08F72
:105320004FF0FF33C9F800306FF00C033B61F2E738
:105330004FEA8A04E31D03F4FF63ADEB030D0DF1A7
:10534000100B07F11C0322460021FD682846FFF7D9
:105350003FFD0246B860234659462846FFF744FD04
:105360000025C9F8005021E07B69C9F800304FF0F2
:10537000FF333B61CFE77B69C9F800306FF0010371
:105380003B61C8E7024656F80810E068FFF72CFDBD
:105390000AE0012303FA02F2D9F800301343C9F8F6
:1053A00000306FF00C033B610135EDB2554531D251
:1053B0007D6105EBC5044FEA840806EB8404617A3D
:1053C000C1F3400156F80830002BCDD06268002AA6
:1053D000CAD0237A012BC7D9BB68786903EB800355
:1053E000636107F11C03F868FFF7F2FCA06100237A
:1053F000E361FB69002BBED15BF8253099B21B0C31
:10540000238263689AB29142BCD0227A1F2AC0D903
:105410001F22BEE701237A6853637CE74FF0FF3316
:105420003B6178E74FF0FF333B6174E74FF0FF33A8
:105430003B6170E74FF0FF333B616CE709520008B6
:105440004952000870B58EB05D4805F049F85D4CD2
:1054500023685B6800265E615B4D286800F000FAF7
:105460002368586800F088FA324629682068FFF7F8
:10547000DBF9564B187000286BD1554B5A6C0A92C9
:105480009A6C0B92DA6C0C921B6D0D934E4B1A6852
:10549000931C0AA94B480068FFF7E2F94B4B1870C0
:1054A00000285DD1484B1A6811785170002109918C
:1054B0001B6809AA07925B78069305914FF4FA736B
:1054C00004934FF47A720392029342F21113019300
:1054D0000091404B1B680A463A480068FFF7DEF926
:1054E0003A4B187010B110F1130F3FD1354B1868BB
:1054F000354B1B685B78C16909AA0092354A12686E
:10550000FFF79AFA314B187000283DD12E4B1B68DB
:10551000586803F0ADFF2B4B1B681A68002A4AD16C
:105520002D4A1268002A3DD1264B1B68586800F0AE
:105530009EF92A4804F0D4FF294B1B68986804F0B0
:10554000E1FC01F071FB274B1860274B186000202D
:1055500004E00146254804F03DFF01200EB070BD77
:105560000146234804F036FF0220F7E710F10C0F44
:1055700005D001461F4804F02DFF0320EEE70999EE
:105580001D4804F027FFF8E710F10C0F05D0014685
:105590001A4804F01FFF0420E0E70999164804F0B8
:1055A00019FFF8E7D86900924FF4A0432F22012198
:1055B000FBF71AFEB8E7124804F092FFB4E700BF09
:1055C00060AF0008180500201C0500202005002001
:1055D00030020020280000205C05002080B0000878
:1055E00094040020600500206405002088AF0008B6
:1055F000B0AF000804B00008DCAF000830B000080D
:1056000058B0000800B587B01D4B186005A90020F0
:10561000FFF761F81B4B186030B305991A4804F086
:10562000D9FE174B1B68174A12685A61174B1B6843
:105630005B685168164A039201220292154A019250
:1056400003F154020092483300221348FFF732FE60
:10565000124B187010B110F10D0F0AD1FFF7F2FEC6
:10566000002007B05DF804FB0D4804F039FF01206D
:10567000F7E7074B19680B4804F0ACFE0220F0E78F
:105680001C05002018050020BCB0000828000020E0
:105690005C050020040000202405002020050020D7
:1056A0009CB00008E4B0000810B501F0BDFA1D4B35
:1056B00018601D4B1A68904200D110BD821A186004
:1056C0001A4C00234FF47A7101FB02F2194620684C
:1056D000FFF73AFA21688B6B5B7A154A1268DB098F
:1056E00053748B6B9B7ADB091374012807D0022853
:1056F000E3D1104804F0F4FE02F094FADDE75068BC
:1057000003F0EAFE0A4C206800F0AAF8074B18687C
:10571000FEF7A8FF084804F0E3FE2068FFF772FFD9
:10572000CBE700BF600500206405002018050020BD
:105730001C05002020B10008F8B0000838B5154B52
:105740001A685268EFF31081516372B618680368E3
:1057500013B943685B6933B90E4B1B685B685B6BBD
:1057600083F3108838BD00224FF47A71FFF7B1FA45
:105770000446084D00234FF47A7201462868FFF76B
:10578000CEFA00234FF47A7221462868FFF7F2FA26
:10579000E2E700BF1805002030B583B005460C468F
:1057A0000368986801F0D8FF10B9002003B030BD3D
:1057B0000C4900234B608B6023790B612368C3F392
:1057C0000A030B60224652F8053B9B0B03F00203D1
:1057D000CB60286801AB806801F049FFB0FA80F027
:1057E0004009E3E78805002030B585B00DF10503D9
:1057F000194A01F0CAFF88B90546174B1C68DB68D7
:10580000022B0DD000231C430094134B1B698DF811
:105810000430124B1B689A692AB100BE05B030BD36
:105820004FF40043EFE75A681B894BB11188614080
:105830005088014203D0013B9BB20C32F5E70125B1
:10584000002DEBD0002AE9D09368002BE6D0694602
:1058500050689847E2E700BF6C050020680500200B
:1058600020B108B5806801F0D1FE08BD704703681B
:1058700043B110B50446986801F09AFE08B90123B7
:10588000636110BD70470000F0B58BB0109EBDF88D
:1058900044E000285CD00D460446002A5BD0002E70
:1058A0005CD021603249086042600381C660A0F884
:1058B00010E0002060826061A061E061012121624E
:1058C000A084A06211E000EB400C4FEA8C0702EBD1
:1058D0008C0C0021D1534FF6FF77ACF80270CCF856
:1058E0000410CCF80810013080B29842EBD30023AA
:1058F00007E003EB430206EBC20200211161013312
:105900009BB27345F5D3EB68984723689B681A6888
:10591000184B9A4219D00E230593002306930122B7
:1059200007920093019302930393049308920E232A
:1059300009936946A86801F0B5FD90B91321A868DC
:1059400001F0D8FF80B90BB0F0BD00230593E4E768
:105950004FF0FF30F7E74FF0FF30F4E74FF0FF3044
:10596000F1E74FF0FF30EEE74FF0FF30EBE700BF1D
:10597000680500200064004030B108B5036813B129
:10598000986801F043FE08BD7047000030B5049CE4
:10599000059D20B384462CB33DB30089884227D9A6
:1059A000DCF8040001EB41014FEA810E00EB8101BC
:1059B0004C608D60C2F30A02039C74B10F4C224309
:1059C00020F80E20C3F30A0343F400434B80DCF8B5
:1059D000183083B100BF00200EE00024EFE74FF045
:1059E000FF3009E04FF0FF3006E04FF0FF3003E0FA
:1059F0004FF0FF3000E0002030BD00BF0080FFFF0F
:105A00008446E0B1008A88421AD910B4DCF80C4010
:105A100001EB41014FEAC10C04EBC100C2F30A02E1
:105A20000BB14FF400431A4344F80C209DF80430A6
:105A3000037100230361029B436110BC70477047F0
:105A40000020704770B504460D460B6943B1036AE8
:105A5000BBB9438A43F0080343826FF0080600E0B5
:105A60000026EFF31083E36272B629462046FFF763
:105A700093FE48B16B69E361E36A83F310883046B3
:105A800070BD6FF00806ECE701232B61A38C9BB27D
:105A900001339BB2A384EFE710B4EFF31083C3622A
:105AA00072B6C46914B10023C3610124838C9BB214
:105AB000C3B1038A01E0013B9BB29BB1C26803EB17
:105AC000430102EBC10211690029F4D05169002998
:105AD000F1D000211161828C92B2013A92B282849B
