:020000040800F2
:100000000050002065880008D1830008DD830008C7
:10001000E3830008E9830008EF8300080000000084
:10002000000000000000000000000000F583000850
:1000300001840008000000000D84000819840008F5
:10004000AD880008AD880008AD880008AD880008BC
:10005000AD880008AD8800082584000833840008B6
:10006000AD880008AD880008AD880008AD8800089C
:10007000AD880008AD880008AD880008AD8800088C
:10008000AD880008AD880008418400085584000848
:1000900069840008AD880008AD880008AD880008B4
:1000A000AD880008AD880008AD880008AD8800085C
:1000B000AD8800087D840008AD880008AD88000880
:1000C000AD880008AD880008AD880008AD8800083C
:1000D000AD880008AD880008AD880008AD8800082C
:1000E000AD880008AD880008AD8800080000000059
:1000F0000000000000000000000000000000000000
:0C01000000000000000000005FF808F1A3
:1001100010B5054C237833B9044B13B10448AFF341
:1001200000800123237010BDD403002000000000D4
:1001300020E7000808B5034B1BB103490348AFF3A0
:10014000008008BD00000000D803002020E7000860
:10015000034613F8012B002AFBD1181A0138704707
:100160004FF0FF0C1CEAD0521EBF1CEAD15392EA9A
:100170000C0F93EA0C0F6FD01A4480EA010C400276
:1001800018BF5FEA41211ED04FF0006343EA5010D0
:1001900043EA5111A0FB01310CF00040B1F5000F12
:1001A0003EBF490041EAD3715B0040EA010062F1C1
:1001B0007F02FD2A1DD8B3F1004F40EBC25008BFAB
:1001C00020F00100704790F0000F0CF0004C08BFC9
:1001D00049024CEA502040EA51207F3AC2BFD2F196
:1001E000FF0340EAC250704740F400004FF00003A4
:1001F000013A5DDC12F1190FDCBF00F000407047DE
:10020000C2F10002410021FA02F1C2F1200200FA1B
:1002100002FC5FEA310040F1000053EA4C0308BFE2
:1002200020EADC70704792F0000F00F0004C02BF33
:10023000400010F4000F013AF9D040EA0C0093F0AE
:10024000000F01F0004C02BF490011F4000F013B08
:10025000F9D041EA0C018FE70CEAD15392EA0C0F76
:1002600018BF93EA0C0F0AD030F0004C18BF31F0E1
:10027000004CD8D180EA010000F00040704790F0B7
:10028000000F17BF90F0004F084691F0000F91F05B
:10029000004F14D092EA0C0F01D142020FD193EA21
:1002A0000C0F03D14B0218BF084608D180EA0100A9
:1002B00000F0004040F0FE4040F40000704740F085
:1002C000FE4040F44000704781F0004102E000BF72
:1002D00083F0004330B54FEA41044FEA430594EA06
:1002E000050F08BF90EA020F1FBF54EA000C55EA41
:1002F000020C7FEA645C7FEA655C00F0E2804FEA12
:100300005454D4EB5555B8BF6D420CDD2C4480EAF3
:10031000020281EA030382EA000083EA010180EA23
:10032000020281EA0303362D88BF30BD11F0004F71
:100330004FEA01314FF4801C4CEA113102D04042A7
:1003400061EB410113F0004F4FEA03334CEA1333E2
:1003500002D0524263EB430394EA050F00F0A780FA
:10036000A4F10104D5F1200E0DDB02FA0EFC22FAF5
:1003700005F2801841F1000103FA0EF2801843FAE9
:1003800005F359410EE0A5F120050EF1200E012ADA
:1003900003FA0EFC28BF4CF0020C43FA05F3C01818
:1003A00051EBE37101F0004507D54FF0000EDCF191
:1003B000000C7EEB00006EEB0101B1F5801F1BD33A
:1003C000B1F5001F0CD349085FEA30004FEA3C0C3E
:1003D00004F101044FEA445212F5800F80F09A8034
:1003E000BCF1004F08BF5FEA500C50F1000041EB38
:1003F000045141EA050130BD5FEA4C0C404141EB3C
:100400000101013C28BFB1F5801FE9D291F0000F36
:1004100004BF01460020B1FA81F308BF2033A3F1E5
:100420000B03B3F120020CDA0C3208DD02F1140CDC
:10043000C2F10C0201FA0CF021FA02F10CE002F117
:100440001402D8BFC2F1200C01FA02F120FA0CFC10
:10045000DCBF41EA0C019040E41AA2BF01EB045159
:10046000294330BD6FEA04041F3C1CDA0C340EDC57
:1004700004F11404C4F1200220FA04F001FA02F39A
:1004800040EA030021FA04F345EA030130BDC4F158
:100490000C04C4F1200220FA02F001FA04F340EA4D
:1004A0000300294630BD21FA04F0294630BD94F0FE
:1004B000000F83F4801306BF81F480110134013DE5
:1004C0004EE77FEA645C18BF7FEA655C29D094EA56
:1004D000050F08BF90EA020F05D054EA000C04BFD4
:1004E0001946104630BD91EA030F1EBF00210020BF
:1004F00030BD5FEA545C05D14000494128BF41F05E
:10050000004130BD14F580043CBF01F5801130BDC1
:1005100001F0004545F0FE4141F470014FF000004C
:1005200030BD7FEA645C1ABF194610467FEA655CFD
:100530001CBF0B46024650EA013406BF52EA03359F
:1005400091EA030F41F4002130BD00BF90F0000F8D
:1005500004BF0021704730B54FF4806404F13204C9
:100560004FF000054FF0000150E700BF90F0000F82
:1005700004BF0021704730B54FF4806404F13204A9
:1005800010F0004548BF40424FF000013EE700BF79
:1005900042004FEAE2014FEA31014FEA02701FBF09
:1005A00012F07F4393F07F4F81F06051704732F03B
:1005B0007F4208BF704793F07F4F04BF41F4002192
:1005C000704730B54FF4607401F0004521F00041F0
:1005D0001CE700BF50EA010208BF704730B54FF07A
:1005E00000050AE050EA010208BF704730B511F07B
:1005F000004502D5404261EB41014FF4806404F1B3
:1006000032045FEA915C3FF4D8AE4FF003025FEA38
:10061000DC0C18BF03325FEADC0C18BF033202EBBC
:10062000DC02C2F1200300FA03FC20FA02F001FA16
:1006300003FE40EA0E0021FA02F11444BDE600BFB9
:1006400070B54FF0FF0C4CF4E06C1CEA11541DBF68
:100650001CEA135594EA0C0F95EA0C0F00F0DEF833
:100660002C4481EA030621EA4C5123EA4C5350EA18
:10067000013518BF52EA033541F4801143F4801369
:1006800038D0A0FB02CE4FF00005E1FB02E506F0FA
:100690000042E0FB03E54FF00006E1FB03569CF04F
:1006A000000F18BF4EF0010EA4F1FF04B6F5007F55
:1006B00064F5407404D25FEA4E0E6D4146EB0606C7
:1006C00042EAC62141EA55514FEAC52040EA5E5050
:1006D0004FEACE2EB4F1FD0C88BFBCF5E06F1ED8FA
:1006E000BEF1004F08BF5FEA500E50F1000041EB31
:1006F000045170BD06F0004646EA010140EA0200DE
:1007000081EA0301B4EB5C04C2BFD4EB0C0541EAFF
:10071000045170BD41F480114FF0000E013C00F314
:10072000AB8014F1360FDEBF002001F0004170BD38
:10073000C4F10004203C35DA0C341BDC04F1140451
:10074000C4F1200500FA05F320FA04F001FA05F2DD
:1007500040EA020001F0004221F0004110EBD370AA
:1007600021FA04F642EB06015EEA430E08BF20EAD6
:10077000D37070BDC4F10C04C4F1200500FA04F379
:1007800020FA05F001FA04F240EA020001F000410B
:1007900010EBD37041F100015EEA430E08BF20EA7E
:1007A000D37070BDC4F1200500FA05F24EEA020EC6
:1007B00020FA04F301FA05F243EA020321FA04F0F5
:1007C00001F0004121FA04F220EA020000EBD370AC
:1007D0005EEA430E08BF20EAD37070BD94F0000FAC
:1007E0000FD101F00046400041EB010111F4801FE0
:1007F00008BF013CF7D041EA060195F0000F18BF91
:10080000704703F00046520043EB030313F4801FCC
:1008100008BF013DF7D043EA0603704794EA0C0F86
:100820000CEA135518BF95EA0C0F0CD050EA41069C
:1008300018BF52EA4306D1D181EA030101F0004119
:100840004FF0000070BD50EA410606BF1046194641
:1008500052EA430619D094EA0C0F02D150EA01364D
:1008600013D195EA0C0F05D152EA03361CBF10468E
:1008700019460AD181EA030101F0004141F0FE412D
:1008800041F470014FF0000070BD41F0FE4141F4B1
:10089000780170BD70B54FF0FF0C4CF4E06C1CEAB1
:1008A00011541DBF1CEA135594EA0C0F95EA0C0F66
:1008B00000F0A7F8A4EB050481EA030E52EA033521
:1008C0004FEA013100F088804FEA03334FF0805542
:1008D00045EA131343EA12634FEA022245EA11156F
:1008E00045EA10654FEA00260EF000419D4208BF20
:1008F000964244F1FD0404F5407402D25B084FEACD
:100900003202B61A65EB03055B084FEA32024FF478
:1009100080104FF4002CB6EB020E75EB030E22BFD5
:10092000B61A754640EA0C005B084FEA3202B6EB95
:10093000020E75EB030E22BFB61A754640EA5C0044
:100940005B084FEA3202B6EB020E75EB030E22BFD4
:10095000B61A754640EA9C005B084FEA3202B6EBD5
:10096000020E75EB030E22BFB61A754640EADC0094
:1009700055EA060E18D04FEA051545EA16754FEAF6
:1009800006164FEAC30343EA52734FEAC2025FEA14
:100990001C1CC0D111F4801F0BD141EA00014FF0A3
:1009A00000004FF0004CB6E711F4801F04BF014374
:1009B0000020B4F1FD0C88BFBCF5E06F3FF6AFAE90
:1009C000B5EB030C04BFB6EB020C5FEA500C50F120
:1009D000000041EB045170BD0EF0004E4EEA1131A3
:1009E00014EB5C04C2BFD4EB0C0541EA045170BDAA
:1009F00041F480114FF0000E013C90E645EA060EEE
:100A00008DE60CEA135594EA0C0F08BF95EA0C0F1B
:100A10003FF43BAF94EA0C0F0AD150EA01347FF463
:100A200034AF95EA0C0F7FF425AF104619462CE73A
:100A300095EA0C0F06D152EA03353FF4FDAE10469D
:100A4000194622E750EA410618BF52EA43067FF4EE
:100A5000C5AE50EA41047FF40DAF52EA43057FF47E
:100A6000EBAE12E74FEA4102B2F1E04324BFB3F527
:100A7000001CDCF1FE5C0DD901F0004C4FEAC00215
:100A80004CEA5070B2F1004F40EB830008BF20F0F9
:100A90000100704711F0804F21D113F13872BCBFB3
:100AA00001F00040704741F480114FEA5252C2F108
:100AB0001802C2F1200C10FA0CF320FA02F018BF51
:100AC00040F001004FEAC1234FEAD32303FA0CFCA4
:100AD00040EA0C0023FA02F34FEA4303CCE77FEA33
:100AE000625307D150EA01331EBF4FF0FE4040F47D
:100AF0004000704701F0004040F0FE4040F400002C
:100B0000704700BF80F0004002E000BF81F000416C
:100B100042001FBF5FEA410392EA030F7FEA226CA3
:100B20007FEA236C6AD04FEA1262D2EB1363C1BF33
:100B3000D218414048404140B8BF5B42192B88BFA2
:100B4000704710F0004F40F4000020F07F4018BFC5
:100B5000404211F0004F41F4000121F07F4118BFE5
:100B6000494292EA030F3FD0A2F1010241FA03FC8D
:100B700010EB0C00C3F1200301FA03F100F0004375
:100B800002D5494260EB4000B0F5000F13D3B0F13D
:100B9000807F06D340084FEA310102F10102FE2AAC
:100BA00051D2B1F1004F40EBC25008BF20F001001C
:100BB00040EA03007047490040EB0000013A28BFBB
:100BC000B0F5000FEDD2B0FA80FCACF1080CB2EB3E
:100BD0000C0200FA0CF0AABF00EBC25052421843BC
:100BE000BCBFD0401843704792F0000F81F4000161
:100BF00006BF80F400000132013BB5E74FEA410334
:100C00007FEA226C18BF7FEA236C21D092EA030F9F
:100C100004D092F0000F08BF0846704790EA010F19
:100C20001CBF0020704712F07F4F04D1400028BF46
:100C300040F00040704712F100723CBF00F5000028
:100C4000704700F0004343F0FE4040F4000070475E
:100C50007FEA226216BF08467FEA2363014642020A
:100C600006BF5FEA412390EA010F40F4800070471D
:100C70004FF0000304E000BF10F0004348BF4042C3
:100C80005FEA000C08BF704743F0964301464FF0FF
:100C900000001CE050EA010208BF70474FF000035B
:100CA0000AE000BF50EA010208BF704711F000439C
:100CB00002D5404261EB41015FEA010C02BF84466C
:100CC0000146002043F0B64308BFA3F18053A3F5CB
:100CD0000003BCFA8CF2083AA3EBC25310DB01FA12
:100CE00002FC634400FA02FCC2F12002BCF1004F96
:100CF00020FA02F243EB020008BF20F00100704727
:100D000002F1200201FA02FCC2F1200250EA4C007A
:100D100021FA02F243EB020008BF20EADC707047C0
:100D20004FF0FF3C06E000BF4FF0010C02E000BFB7
:100D30004FF0010C4DF804CD4FEA40024FEA410359
:100D40007FEA226C18BF7FEA236C11D001B052EA0F
:100D5000530C18BF90EA010F58BFB2EB030088BFD5
:100D6000C81738BF6FEAE17018BF40F00100704744
:100D70007FEA226C02D15FEA402C05D17FEA236C26
:100D8000E4D15FEA412CE1D05DF8040B704700BF6D
:100D9000844608466146FFE70FB5FFF7C9FF002804
:100DA00048BF10F1000F0FBD4DF808EDFFF7F4FF3D
:100DB0000CBF012000205DF808FB00BF4DF808EDD6
:100DC000FFF7EAFF34BF012000205DF808FB00BFF9
:100DD0004DF808EDFFF7E0FF94BF012000205DF81B
:100DE00008FB00BF4DF808EDFFF7D2FF94BF0120CC
:100DF00000205DF808FB00BF4DF808EDFFF7C8FFC5
:100E000034BF012000205DF808FB00BF4FEA40021C
:100E1000B2F1FE4F0FD34FF09E03B3EB12620DD928
:100E20004FEA002343F0004310F0004F23FA02F092
:100E300018BF404270474FF00000704712F1610F39
:100E400001D1420205D110F0004008BF6FF0004010
:100E500070474FF00000704780B485B000AF7860F5
:100E60007B681B78FB73FB7B18461437BD4680BC40
:100E7000704780B483B000AF78600B46FB70FA789F
:100E80007B681A70012318460C37BD4680BC70473A
:100E900080B483B000AF786039603A687B681A60CC
:100EA000042318460C37BD4680BC704780B483B01D
:100EB00000AF78607B68002B02D07B681B8800E065
:100EC000002318460C37BD4680BC704780B483B001
:100ED00000AF786039607B68002B01D1052303E007
:100EE0007B683A689A60002318460C37BD4680BC80
:100EF000704780B586B002AFF8607A603B600B4601
:100F0000FB72F97A3B68009304237A68F86801F071
:100F100049FB034618461037BD4680BD80B586B0F4
:100F200000AFF860B9607A603B60FB68002B0CD0C2
:100F3000FB685B7C002B08D1BB68002B05D07B686D
:100F4000032B02D93B68002B01D109231BE0FB686E
:100F50005B687B617B695B6A002B01D0002301E049
:100F60004FF000433B617B6993F8283080331A4689
:100F70003B6913433B613969B868FFF789FF3B68F8
:100F800004221A60002318461837BD4680BD80B57C
:100F900086B000AFF860B9607A603B60FB68002BF8
:100FA0000FD0BB68002B0CD03B68002B09D07B68AE
:100FB000032B03D8FB685B7C002B02D17B68002BE2
:100FC00001D109234DE0FB685B683B613B691B7FF6
:100FD000012B01D8092344E0FB685B7C002B0BD17B
:100FE0003B6993F820301946B868FFF742FF3B6829
:100FF00001221A60002334E0FB685A7C3B6993F8B5
:1010000020309A422CD83B695B7F9AB2FB685B7CAC
:101010009BB2D31A9BB2FB82B7F91630002B07DACA
:101020003B691B7F9AB2FB8A13449BB2FB8207E0A9
:10103000B7F916303A69127F934201DB092310E0B9
:101040003B699A69B7F91630DB0013441B681946EF
:10105000B868FFF71DFF3B6804221A60002300E018
:10106000192318461837BD4680BD80B586B000AF3D
:10107000F860B9607A603B60FB68002B0CD0FB68BD
:101080005B7C002B08D1BB68002B05D07B68012B53
:1010900002D13B68002B01D1092312E0B868FFF7A9
:1010A000DBFE0346002B01D00F230AE0FB685B68E0
:1010B0007B617B69002283F820203B6801221A6053
:1010C000002318461837BD4680BD000080B588B0A3
:1010D00002AFF860B9607A603B600023FB75FB6883
:1010E000002B1AD07B68002B17D03B68002B03D154
:1010F00097F82030012B10D87B6A002B0DD0BB68ED
:10110000002B0AD097F83030002B06D097F93030FA
:10111000002B02DBFB6A002B02D14FF0FF33A7E06C
:1011200050220021F8680CF08BFCFB68BA685A6109
:10113000002301220021786801F09BFA0246FB6837
:10114000DA60FB68DB68002B0CD17B6B002B06D0D0
:101150007868FFF7ABFE03461A467B6B1A606FF0A8
:101160000B0385E0FB68DB6800221A70FB683A68B5
:101170009A61FB6897F820201A7707F11002012383
:101180000021786AFFF7B5FE0346BB7597F9163064
:10119000002B04D13A69384B1340002B10D07B6BE5
:1011A000002B06D0786AFFF781FE03461A467B6B58
:1011B0001A6097F91630002B02D06FF00B0357E03E
:1011C00097F830309BB28033BB823B69DB43DB0F47
:1011D000DBB21A46FB685A62FB68FA681A63FB685E
:1011E000264A5A63FB68264A9A63FB6830331946DD
:1011F000786AFFF76BFE0346BB7597F91630002B34
:101200000CD07B6B002B06D0786AFFF74FFE0346AD
:101210001A467B6B1A606FF00B0329E0FB6897F8A6
:10122000302083F82820BA8A398D002301930823BF
:1012300000930023B86806F0B3F80246FB68DA6250
:10124000FB68DB6A002B02D14FF0FF3310E0FB6834
:10125000FA681A64FB680B4A5A64FB680A4A9A6483
:10126000FB6840331946F86AFFF730FE97F91730EC
:1012700018461837BD4680BD00F8FF7F1D0F0008D7
:10128000E12100088F0F00086B10000880B588B0BE
:1012900002AFF860B9607A603B60FB685B695B8AAB
:1012A000BB82FB681B8ABA8A9A4200F0A280FB6864
:1012B0001A8ABB8A53407B82FB68BA8A1A827A8A6E
:1012C00040F201131340002B10D0BA8A40F20113F0
:1012D0001340002B14BF01230023DBB21946002367
:1012E000009300230122F86800F01AF97B8A03F0CA
:1012F0000203002B10D0BB8A03F00203002B14BFA3
:1013000001230023DBB219460023009348F2201387
:101310000722F86800F004F97B8A03F00403002B2D
:1013200010D0BB8A03F00403002B14BF0123002359
:10133000DBB219460023009348F240131222F868EA
:1013400000F0EEF87B8A03F00803002B10D0BB8A74
:1013500003F00803002B14BF01230023DBB219465E
:101360000023009348F210131422F86800F0D8F814
:101370007B8A03F08003002B10D0BB8A03F080032C
:10138000002B14BF01230023DBB219460023009376
:101390004FF401431522F86800F0C2F87B8A03F489
:1013A0000073002B10D0BB8A03F40073002B14BF12
:1013B00001230023DBB219460023009348F22013D7
:1013C0000622F86800F0ACF87B8A03F40063002B77
:1013D0000FD0BB8A03F40063002B14BF012300234A
:1013E000DBB219460023009313231322F86800F0A0
:1013F00097F80023FB75FB685B79002B03D0FB7D1E
:1014000043F00103FB75FB689B78002B03D1FB685D
:10141000DB78002B03D0FB7D43F01003FB75FB68EA
:101420001B7A002B03D1FB685B7A002B03D0FB7D7A
:1014300063F07F03FB75FB68DB68FA7D1A70BB689D
:10144000002B67D0FB681B7F012B65D9FB689B7F56
:101450007B74FB685B7F7A7C9A425DD0FB68DB6AB9
:101460001B69002B58D1FB689A697B7CDB00134415
:101470001968FB7D1A04FB6898697B7CDB000344D8
:101480000A431A60FB68DB6A581DFB689A697B7C1B
:10149000DB001344082219460CF0AAFAFB685A69CB
:1014A000FB68DB6A1946104605F0F4FF7B7C0133CC
:1014B0007B74FB681B7F7A7C9A4201D27A7C00E0C5
:1014C0000022FB689A77FB68DB7F012B0CD1FB685D
:1014D0000222DA77002300934FF480532022012167
:1014E000F86800F01DF817E0FB68DB7F022B13D1D2
:1014F000FB689A7FFB685B7F9A420DD1FB680022F4
:10150000DA7700230093002320220021F86800F0FE
:1015100007F801E000BF00E000BF1837BD4680BDFE
:1015200080B48DB000AFF860B96011461A460B4622
:10153000FB711346BB80FB68002B00F0A680FB7993
:10154000DB0887F82F30FB7903F00703012202FA4A
:1015500003F387F82E3097F82F30092B0AD905238B
:1015600087F82F30012387F82E304FF4C243BB8019
:10157000FB79BB6397F82F30FA681344BB62BB6AF0
:101580001A7897F82E30134087F82730BB68002B65
:1015900004D097F82730002B06D079E097F8273051
:1015A000002B74D00023BB80FB791A06BB88134341
:1015B0003B62BB6BFB61FB685B69EFF310827A6196
:1015C0007A691A6372B600BFBB68002B08D0BB6A89
:1015D0001A7897F82E301343DAB2BB6A1A700BE010
:1015E000BB6A1B785AB297F92E30DB435BB21340CB
:1015F0005BB2DAB2BB6A1A70FB681B7F012B3CD965
:10160000FB685B7FFB76FB7E013387F82D30FB6840
:101610001B7F97F82D209A4202D3002387F82D30A4
:10162000FB689B7F97F82D209A4203D1FB6801222B
:10163000DA7722E0FB689A69FB7EDB0013443A6AA2
:101640001A60FB689A69FB7EDB001344FA695A60F2
:10165000FB6897F82D205A77FB6893F820301A46DC
:10166000FB681B7F013B9A4207DAFB6893F8203046
:101670000133DAB2FB6883F82020FB685B691B6BDF
:101680003B613B6983F3108802E000BF00E000BFCC
:101690003437BD4680BC704780B485B000AF7860F9
:1016A0007B681B68FB60FB6818461437BD4680BC2E
:1016B000704780B483B000AF78607B68002B02D0A5
:1016C0007B681B8800E0002318460C37BD4680BCB1
:1016D000704780B483B000AF786039607B68002BBE
:1016E00001D1052303E07B683A689A60002318461D
:1016F0000C37BD4680BC704780B586B002AFF8603D
:101700007A603B600B46FB72F97A3B6800930423D6
:101710007A68F86800F046FF034618461037BD4661
:1017200080BD80B487B000AF786039607B687B6132
:101730003B681B79FB743B680533FB60FB7C012B2A
:1017400007D1FB681B785AB27B695A707B6901220A
:10175000DA6000BF1C37BD4680BC704780B588B0DA
:1017600000AFF860B9607A603B60FB685B68FB6162
:10177000FB68002B12D0BB68002B0FD0FB685B7C92
:10178000002B0BD0FB685A7CFB691B7A9A4205D868
:101790007B68042B02D13B68002B01D1092320E098
:1017A000B868FFF779FFB861BB691B0CFB75BB69B3
:1017B000BB82FB685B7C013BD9B2BB8AFA7DF869CE
:1017C00000F0C0F80346FB7497F91330002B01D0EA
:1017D000082306E03B687A68B968F86800F000FD05
:1017E000034618462037BD4680BD000080B588B04E
:1017F00000AFF860B9607A60FB70FB68002B0BD01B
:10180000BB68002B08D07B68002B05D0BB6A002B7F
:1018100002D0FB6A002B02D14FF0FF338AE0302266
:101820000021F8680CF00CF9FB68BA681A60FB68D4
:101830007A685A60FB68FA6A9A61FB683A8E9A8302
:10184000BB6A9B78FA789A4204D3BB6A9B78013BC7
:10185000DBB200E0FB78FA6813720023FB7741E00B
:10186000FB7F0133D9B207F114020123B86AFFF7F5
:1018700043FF0346BB7797F91E30002B0CD07B6BE0
:10188000002B06D0B86AFFF714FF03461A467B6B9D
:101890001A606FF00B034DE07B691B0C7B777B6953
:1018A0007B837B8B7A7FF97FF86800F04BF80346E7
:1018B0007B7697F91930002B11D07B6B002B06D06B
:1018C000B86AFFF7F6FE03461A467B6B1A6097F973
:1018D000193013F10C0F02D097F919302AE0FB7F71
:1018E0000133FB77FB681B7AFA7F9A42B8D3FB6817
:1018F000FA681A62FB68114A5A62FB68104A9A62D7
:10190000FB6820331946B86AFFF7E3FE0346BB774E
:1019100097F91E30002B0CD07B6B002B06D0B86AD9
:10192000FFF7C7FE03461A467B6B1A606FF00B0386
:1019300000E0002318462037BD4680BD3121000855
:101940005D17000890B58DB004AF78600846114669
:101950001A460346FB700B46BB7013463B800023C0
:10196000FB777B68002B04D07B681B7AFA789A425D
:1019700002D34FF0FF3377E03B88002B24D0BB78B5
:10198000002B21D00023BB7719E07B685A68BB7F0E
:101990001B01134407F108040FCB84E80F00FA7809
:1019A000BB7F9A4208D03B69002B05D03B7ABA78BE
:1019B0009A4201D1F423FB77BB7F0133BB777B686D
:1019C0001B7ABA7F9A42E0D397F91F30002B49D196
:1019D0007B685A68FB781B011344BB61BB69BA780A
:1019E0001A703B884FF47A7202FB03F31A46BB6904
:1019F0009A60BB69FF225A70BB690022DA60BB693A
:101A00001B78002B0DD0BB699B68002B09D0BB69EC
:101A10001B789BB203F5E063BB83BB6901229A701C
:101A200007E00023BB83BB6900229A60BB690022E8
:101A30009A707B6898697B689A8BFB789BB2134499
:101A400099B27B685A68FB781B011344BA8B084C27
:101A5000029401930023009340F2FF7305F044FCCD
:101A60000346FB7797F91F3018462437BD4690BDD3
:101A70002317000880B58EB002AFF860B9607A60B5
:101A80003B600123FB620123BB62BB68002B77D064
:101A9000FB685B69002B73D0002387F8273068E070
:101AA0007B683B62FB685A6897F827301B01134438
:101AB000BB61BB699B78002B55D0BB69DB68002BF1
:101AC00022D0BB6993F90130002B12D1BB699B78FE
:101AD000022B0AD1FB68186897F82730009348F268
:101AE00030131C220121FFF71BFDBB6901229A70F4
:101AF00007E0BB6902229A70BB6900225A6000238A
:101B00003B62BB690022DA60BB699B78022B1CD167
:101B1000BB695A683B6A1A44BB695A60BB695A6818
:101B2000BB699B689A4210D3FB68186897F8273006
:101B3000009348F230131B220121FFF7F1FCBB692F
:101B4000FF225A70BB6903229A70BB699B78022BF3
:101B500001D00023FB62BB6993F90130052B03D050
:101B60000023BB6200E000BF97F82730013387F8FD
:101B70002730FB681B7A97F827209A4290D328E0F9
:101B8000BB68002B03D1FB685B69002B21D00023CD
:101B9000FB7715E0FB685A68FB7F1B0113447B61F0
:101BA0007B69FF225A707B690022DA607B699B782F
:101BB000002B02D07B6901229A70FB7F0133FB77F7
:101BC000FB681B7AFA7F9A42E4D30023FB6200236E
:101BD000BB62FB68DB68002B14D1FB6A002B11D0C1
:101BE000FB6818680023009300231B220021FFF7E5
:101BF00097FCFB6818680023009300231C22002137
:101C0000FFF78EFCFB68FA6ADA60FB68BA6A1A6151
:101C1000FB68BA685A6100BF3037BD4680BD80B4EA
:101C200085B000AF78607B681B889BB2FB81FB8925
:101C300018461437BD4680BC704780B483B000AFEF
:101C400078607B68002B02D07B681B8800E0002353
:101C500018460C37BD4680BC704780B483B000AFD7
:101C6000786039607B68002B01D1052303E07B6835
:101C70003A689A60002318460C37BD4680BC70470E
:101C800080B586B002AFF8607A603B600B46FB72AD
:101C9000F97A3B68009302237A68F86800F082FCC6
:101CA000034618461037BD4680BD80B485B000AFEE
:101CB00078600B46FB70FB78DB08FB73FB7803F066
:101CC0000703012202FA03F3BB737B68002B0AD0DF
:101CD000FB7B092B07D8FB7B7A68D25CBB7B13406C
:101CE000DBB2002B01D0012300E00023184614379B
:101CF000BD4680BC704780B483B000AF78607B681D
:101D0000002B07D07B68DB68002B03D07B68DB6887
:101D10001B7800E0002318460C37BD4680BC704796
:101D200080B487B000AF786039603B681B79FB7581
:101D30003B6805333B613B691B78FB733B695B7810
:101D4000BB737B68BB60FB7D022B0AD1BB7B002B86
:101D500004D0BB68DB78BA7B9A4202D1BB68FA7BBD
:101D60009A7000BF1C37BD4680BC704780B586B0F6
:101D700000AFF860B9607A603B60FB68002B0CD064
:101D8000FB685B7C002B08D1BB68002B05D07B680F
:101D9000022B02D13B68002B01D1092317E0FB681D
:101DA0005B687B61B868FFF73AFF03461A464FF459
:101DB0007A7303FB02F27B699A607B690022DA6026
:101DC0003B687A68B968F86800F00AFA0346184672
:101DD0001837BD4680BD000080B58AB004AFF860FA
:101DE000B9607A60FB700023FB75FB68002B0BD099
:101DF000BB68002B08D07B68002B05D0BB6A002B8A
:101E000002D07B6B002B02D14FF0FF3398E02C22E5
:101E10000021F8680BF014FEFB6800221A70FB68C2
:101E200000225A70FB68FA78DA70FB683A8C9A8064
:101E3000FB687A681A62BB8C4FF47A7202FB03F378
:101E40001A46FB68DA6007F1140201230021B86822
:101E5000FFF716FF0346BB7597F91630002B0CD021
:101E60003B6C002B06D0B868FFF7E7FE03461A4626
:101E70003B6C1A606FF00B0362E0BB8A1A464FF4AA
:101E80007A7303FB02F2FB689A60FB68FA681A61D6
:101E9000FB682D4A5A61FB682C4A9A61FB68103333
:101EA0001946B868FFF7D9FE0346BB7597F9163097
:101EB000002B0CD03B6C002B06D0B868FFF7BDFEA2
:101EC00003461A463B6C1A606FF00B0338E0FB6860
:101ED000DA68FB689B689A4203D9FB689A68FB68DA
:101EE000DA603A8EB98D1A4B0293FB680193002396
:101EF000009340F2FF73B86A05F0F6F90346FB75EC
:101F000097F91730002B02D097F9173018E0FB68CB
:101F10007A6B5A62BA8F398F0023019301230093A1
:101F20000023786B05F03CFA0246FB689A62FB6876
:101F30009B6A002B02D14FF0FF3301E097F9173075
:101F400018461837BD4680BD312100086D1D0008B8
:101F5000211D000880B588B000AFF860B9607A60D4
:101F60003B60FB681B78FB770023BB7797F91F303A
:101F7000002B0CBF01230023DBB2BB61FB68DB68D5
:101F80007A689A4204D2FB68DA687B68D31A00E068
:101F90000023FA68D360BB69002B0ED1FB689B68F5
:101FA000002B29D0FB68DB68002B06D0FB6893F977
:101FB000013097F91F209A421ED0FB689B6AFA7F76
:101FC0005A71FB685A6AFB689B6A1946104605F00D
:101FD00061FA97F91F30002B0AD1FB689B8803F444
:101FE0008073002B01D0052300E07F23FB7703E003
:101FF000FB689A68FB68DA60FB68FA7F5A70FB68D6
:102000009B78002B25D0FB689B78822B1AD0822BE3
:102010001BDC812B13D0812B17DC802B0CD0802B69
:1020200013DC012B02D0022B03D00EE00523FB773B
:102030000CE00423FB7709E07F23FB7706E0022313
:10204000BB7703E00123BB7700E000BFFB68002201
:102050009A70FB689B8803F48053002B1CD0FB68AC
:102060001B6A12211846FFF720FE0346002B11D1F0
:10207000FB681B6A1B211846FFF717FE0346002B5F
:1020800008D1FB681B6A1C211846FFF70EFE0346A9
:10209000002B01D0012300E000237B61FB689B88BB
:1020A00003F40053002B0DD0FB681B6A1846FFF7A2
:1020B00022FE03461A46FB689B881340002B01D082
:1020C000012300E000233B6197F91F30052B10D15D
:1020D0007B69002B02D13B69002B0AD0FB689B88EF
:1020E00003F48043002B01D0042300E07F23FB771F
:1020F00010E0FB689B881BB2002B0BDA97F91F30AE
:102100007F2B07D17B69002B04D13B69002B01D1C8
:102110000523FB77FB68FA7F1A70BB68002B02D09F
:10212000BB68FA7F1A70BB7F18462037BD4680BD5A
:1021300080B588B000AFF860B9607A603B60FB683A
:10214000002B05D0BB68002B02D03B68002B01D1CF
:10215000092341E0FB689B68FB61FB681B68BB616E
:10216000BB69002B01D10E2336E00023FB75FB6811
:10217000DB68002B03D1FA697B689A4222D9FB689D
:10218000DB68FA699A4201D8092325E0FB68DB681D
:10219000FA69D31AFB61FB68DB68BA691344BB6157
:1021A000FA697B689A420AD97B68FB61FB68DA6846
:1021B000FB691A44FB68DA60FF23FB7502E0FB68E9
:1021C0000022DA60FA69B969B8680BF011FC3B6863
:1021D000FA691A6097F9173018462037BD4680BD56
:1021E00080B588B000AFF860B9607A603B60FB688A
:1021F000002B05D0BB68002B02D03B68002B01D11F
:10220000092347E0FB689B68FB61FB681B68BB61B7
:10221000BB69002B01D10E233CE00023FB75FB685A
:10222000DB68002B03D1FA697B689A4222D9FB68EC
:10223000DB68FA699A4201D809232BE0FB68DB6866
:10224000FA69D31AFB61FB68DB68BA691344BB61A6
:10225000FA697B689A420AD97B68FB61FB68DA6895
:10226000FB691A44FB68DA60FF23FB7502E0FB6838
:102270000022DA60FA697B689A4201D20C2309E0F5
:10228000FA69B968B8690BF0B3FB3B68FA691A6080
:1022900097F9173018462037BD4680BD80B485B009
:1022A00000AFF860B9607A603B60022318461437CB
:1022B000BD4680BC704780B485B000AFF860B9609F
:1022C0007A603B60022318461437BD4680BC7047D5
:1022D00080B487B000AF78600B467B807B68002BB2
:1022E00003D07B681B88002B01D1002346E000232C
:1022F000FB827B681B88013BBB8226E0FA8ABB8A93
:1023000013445B10FB817B685968FA8913465B00B4
:1023100013449B000B44BB60BB681B887A889A42BD
:1023200001D1BB682AE0BB681B887A889A4209D22F
:10233000FB89002B03D0FB89013B9BB200E0FB89AA
:10234000BB8202E0FB890133FB82FA8ABB8A9A4294
:10235000D4D3FA8ABB8A9A420FD17B685968FA8A29
:1023600013465B0013449B000B443B613B691B8895
:102370007A889A4201D13B6900E0002318461C3755
:10238000BD4680BC7047000080B48DB000AFF860DF
:102390007A603B600B46FB72FB68002B03D0FB6846
:1023A0005B68002B01D10523D2E07B68002B01D1B3
:1023B0000923CDE07B687B62FB68DB7803F00F03C9
:1023C000032B50D0032B00F38C80012B02D0022B67
:1023D00015D086E0FB7A002B01D00E23B8E0FB6815
:1023E0005B687B617B691A797B6A1A747B691A68FE
:1023F0007B6A1A607B699A687B6A9A6073E0FB6803
:102400009B78FA7A9A4201D30E23A1E0FB685B68BD
:10241000FB61FB7A002B0BD1FB691A7A7B6A1A7479
:10242000FB691A687B6A1A607B6A01229A605AE02B
:10243000FB695A7A7B6A1A74FB695B68BB61BB698A
:10244000002B08D0FB691B69FA7A013A02FB03F3FF
:10245000BA69134400E0BB697A6A1360FB69DA6801
:102460007B6A9A603FE0FB685B683B620023FB622B
:10247000002387F82B301CE097F82B2013465B00D5
:1024800013449B001A463B6A13441B79FA7A9A421A
:102490000AD197F82B2013465B0013449B001A4681
:1024A0003B6A1344FB620AE097F82B30013387F84C
:1024B0002B30FB689B7897F82B209A42DCD3FB6A81
:1024C000002B01D10E2343E0FB6A5A797B6A1A7410
:1024D000FB6A1A687B6A1A60FB6A9A687B6A9A6070
:1024E00001E0092334E0FB689B68002B02D03B68C5
:1024F000002B09D07B68194A5A617B68184A9A6197
:102500007B6A00225A601CE0FB689B685B68002BBA
:1025100003D0FB689B685B6800E0124B7A685361EC
:10252000FB689B689B68002B03D0FB689B689B68DB
:1025300000E00D4B7A689361FB689B681A687B6AC0
:102540005A607B6A0022DA607B6AFA7A5A74002346
:1025500018463437BD4680BC704700BF31210008A3
:10256000E12100089D220008B722000880B483B052
:1025700000AF0346FB7197F90730002B03DB97F997
:102580000730192B02DD064B5B6A04E097F9073030
:10259000034A52F8233018460C37BD4680BC7047BA
:1025A00014E9000890B58FB000AFF8607A603B6026
:1025B0000B46FB727B68002B01D1092324E007F155
:1025C00014037B6300233B6107F11402F97ABB6CAF
:1025D000F868FFF7D9FE034687F8333097F93330B0
:1025E000002B02D097F933300EE07B6B9B683A6882
:1025F0009A4201D00B2307E0BC6A07F110033A6846
:102600007968786BA047034618463C37BD4690BDB5
:1026100090B58FB000AFF8607A603B600B46FB72FC
:1026200007F114037B6300233B6107F11402F97A7D
:10263000BB6CF868FFF7A8FE034687F8333097F9BC
:102640003330002B02D097F933300EE07B6B9B6860
:102650003A689A4201D00B2307E0FC6A07F11003A5
:102660003A687968786BA047034618463C37BD4600
:1026700090BD80B58EB000AFF8607A603B600B46CD
:10268000FB7207F114033B6307F11402F97A01238B
:10269000F868FFF779FE034687F8373097F9373047
:1026A000002B16D13B6B1B68002B03D03B6B9B6848
:1026B000002B03D1092387F837300AE07B68002B11
:1026C00007D03B6B9B687A689A4202D00B2387F84D
:1026D00037303B68002B03D03B6897F837201A70DF
:1026E00097F93730002B02D13B6B1B6800E00023C9
:1026F00018463837BD4680BD90B597B002AFF86038
:10270000B9607A603B60FB687B637B6B9B68002BE6
:1027100000F00C813B68002B00F008813B6E002B21
:1027200005D1FB68D3F86831002B40F0FF80FB68CF
:1027300093F860310A2B28D9FB6893F860310B2B92
:1027400014BF01230023DBB23B63FB6893F86031C5
:102750000C2B02D148F2102301E048F22023FB8524
:102760007B6B18687B6B1B7B1A46FB8D00920422E7
:10277000396BFEF7D5FE3B6B002B14BF0123002302
:10278000DBB21A46FB6883F86021002387F84F30DC
:10279000FB68D3F86831002B0DD0FB68D3F86431A7
:1027A000002B08D0FB68D3F86431DB68002B02D122
:1027B000012387F84F300023BB6465E00123BB642D
:1027C00097F84F302A33DB00FA6813447B6497F89C
:1027D0004F20FB685232002143F82210002387F873
:1027E00043304BE097F843201346DB009B1A9B00D5
:1027F00010337A6B1344BB62BB6A0C337B627B6A17
:102800001B6887F82330BB6A9B68FB63FB6B082B54
:1028100001D90823FB6397F82330FA6B9A4212D947
:1028200007F118030822002118460BF009F997F860
:10283000232007F11803796C18460BF0D9F807F13B
:102840001803BB6301E07B6CBB637B6A00221A60E8
:10285000BB6A9C69B86A07F11403FA6BB96BA047AD
:1028600097F823207B6A1A6097F823307A6C134418
:102870007B6497F84330013387F843307B6B5B7B95
:1028800097F843209A42ADD397F84F20FB68523215
:1028900053F82230002B91D1FB68D3F86C31002B18
:1028A00058D0BB6C002B17D0FB68D3F87021FB68A5
:1028B000D3F86C319A420AD97B6B1868FB68D3F85D
:1028C00070310093002317220021FEF729FEFB68D8
:1028D0000122C3F870213DE0FB68D3F87031002B72
:1028E00038D0FB68D3F87021FB68D3F86C319A427A
:1028F00030D2FB68D3F87021BB681A44FB68C3F878
:102900007021FB68D3F87021FB68D3F86C319A42D0
:1029100020D97B6B1868FB68D3F87031009348F2BC
:10292000502317220121FEF7FBFD13E07B6B9B6810
:10293000002B02D03B68002B0DD1FB680022C3F8AE
:102940004821FB680022C3F84C21FB680022C3F831
:10295000702100E000BF00BF5437BD4690BD90B568
:1029600091B000AF78607B68FB627B68D3F8483138
:102970000533FB637B6893F84C31002B04D07B68F4
:1029800093F84C31FD2B01D9012300E00023BB62F9
:10299000002387F83B3062E097F83B201346DB00CA
:1029A0009B1A9B001033FA6A13447B627B6A3B627A
:1029B0003B6ADB68FB773B6A9B687B637B6B082B1E
:1029C00001D908237B63FB7F7A6B9A420AD907F10E
:1029D00010030822002118460BF032F807F110030B
:1029E0003B6301E0FB6B3B633B6A0022DA607B6A7E
:1029F0005C6907F10C037A6B396B386AA047FA7F80
:102A00003B6ADA60FB7F7A6B9A4206D9FA7F07F15C
:102A100010031946F86B0AF0EBFF97F83B20FB6AAE
:102A20003C3253F82230BB61BB69002B0ED0BB6A2D
:102A3000002B0BD0BB691A7897F83B30F96A0B442E
:102A400093F810311343DAB2BB691A70FB7FFA6B4B
:102A50001344FB6397F83B30013387F83B30FB6A44
:102A60005B7B97F83B209A4296D37B680022C3F8A1
:102A700050217B68D3F860217B68C3F868217B68AC
:102A8000D3F85C217B68C3F86421FB6A5A687B68D1
:102A9000D3F848311946104604F0FCFC03461846AA
:102AA0004437BD4690BD80B588B000AFF860B960CE
:102AB0007A603B60FB68BB61BB699B68002B00F0E0
:102AC000DC803B68002B00F0D880FB6893F84C3129
:102AD000002B04D0FB6893F84C31FD2B46D9FB68E2
:102AE000D3F86031002B18D0FB68D3F86831BA688E
:102AF0009A4205D2FB68D3F86821BB68D31A00E07C
:102B00000023FA68C2F86831FB68D3F86831002BFB
:102B100003D1FB680122C3F85021FB68D3F8503180
:102B2000002B23D10023FB771BE0FA7FBB693C32EB
:102B300053F822307B617B69002B0FD07B691A78B8
:102B4000FB7FB9690B4493F810311340DBB2002BC3
:102B500004D1FB680122C3F8502107E0FB7F013359
:102B6000FB77BB695B7BFA7F9A42DED3FB6893F805
:102B70004C31FD2B1DD9FB68D3F86431BA689A42F9
:102B800005D2FB68D3F86421BB68D31A00E00023A8
:102B9000FA68C2F86431FB68D3F85031002B7FD05B
:102BA000FB68D3F86431002B7AD1F868FFF7D7FEC1
:102BB00076E0FB68D3F85431002B71D0BB6A002B50
:102BC0006ED0FB6893F84C31002B08D1FB68D3F82A
:102BD0005031002B64D0F868FFF7C1FE60E0FB685D
:102BE00093F85931FF2B19D1FB68D3F854315B7C32
:102BF000002B09D0FB6893F85831002B04D0FB68F8
:102C0000FE2283F8592109E0FB6893F84C315B08F8
:102C1000DBB20133DAB2FB6883F85921FB6893F821
:102C20005931FE2B12D1FB68D3F854319A7CFB68E2
:102C300093F858319A4233D1FB6893F84C21FB68E2
:102C400083F85921F868FFF78AFE29E0FB6893F8BA
:102C50005931013BDAB2FB6883F85921FB6893F8DC
:102C60005931002B1CD1FB6893F84C21FB6883F889
:102C70005921F868FFF773FE12E0FB680122C3F8E0
:102C80005021FB680022C3F86821FB68D3F8682153
:102C9000FB68C3F86421FB68FF2283F8592100E038
:102CA00000BF00BF2037BD4680BD80B485B000AFF7
:102CB00078607B681B78FB73FB7B18461437BD4636
:102CC00080BC704780B485B000AF78607B681B68BB
:102CD000FB60FB6818461437BD4680BC704780B463
:102CE00083B000AF78607B68002B02D07B681B88C4
:102CF00000E0002318460C37BD4680BC704780B406
:102D000083B000AF78607B68002B07D07B681B7CAA
:102D100003F03C03002B01D0012300E00023184600
:102D20000C37BD4680BC704780B483B000AF78607C
:102D300039607B68002B01D1052303E07B683A688A
:102D40009A60002318460C37BD4680BC704780B59A
:102D500086B002AFF8607A603B600B46FB72F97A8E
:102D60003B68009301237A68F868FFF71BFC034671
:102D700018461037BD4680BD80B586B002AFF860FA
:102D80007A603B600B46FB72F97A3B680093042340
:102D90007A68F868FFF706FC034618461037BD4608
:102DA00080BD80B586B002AFF8607A603B600B46AC
:102DB000FB723A1DF97A3B6800930423F868FFF729
:102DC00027FC034618461037BD4680BD80B586B047
:102DD00000AF786039607B687B613B681B79FB746E
:102DE0003B680533FB60FB7C082B15D1FB681B7827
:102DF000802B03D17B6900221A750DE07B699B6BE8
:102E0000002B09D17B693C33FA7CF96818460AF03B
:102E1000EFFD7B6901229A6300BF1837BD4680BD74
:102E200080B58AB004AFF860B96011461A460B4607
:102E3000FB801346BB80FB68DB6C3A6A9A4206D182
:102E4000FB681B6D7A6A9A4201D100234EE0FB6851
:102E50003A6ADA64FB687A6A1A653B6A002B02DB1D
:102E60003B6A9BB200E00023FB827B6A002B02DB03
:102E70007B6A9BB200E00023BB82FB8A002B06D05A
:102E8000BB8A002B03D0FB6801221A6106E00023F5
:102E9000FB820023BB82FB6800221A61FA8AF98850
:102EA000144B0293FB6801930023009340F2FF73DD
:102EB000B86804F019FA0346FB74FB681868BA8A0C
:102EC000B9880023019308230093002304F068FAD3
:102ED0000246FB685A60FB685B68002B04D1FF2345
:102EE000FB74FB6800221A6197F9133018461837F3
:102EF000BD4680BDCD2D000890B58FB002AFF86003
:102F0000B9607A603B60FB68002B05D0BB68002B82
:102F100002D03B68002B01D10923F9E0FB685B6814
:102F2000FB62FB685B7C032B00F2E88001A252F895
:102F300023F000BF452F0008492F00080D3000087E
:102F4000D33000080423E3E0B868FFF7BBFEB861A4
:102F5000BB699BB2C3F30A03FB82FB6ADB6C9BB2C7
:102F6000C3F30A03BB82BB69DB43DB0FDBB23B610C
:102F7000BA69694B1340002B34D13B69002B07D051
:102F8000FB6A1B69002B03D0FA8ABB8A9A4229D1BB
:102F90003B69002B28D0FB8A7F2B23D9FB8AB3F512
:102FA000807F03D9FB8AB3F5C07F1BD9FB8AB3F5B9
:102FB000B06F03D9FB8AB3F5C06F13D3FB8AB3F5A7
:102FC000C06F03D9FB8AB3F5D06F0BD3FB8AB3F57F
:102FD000DC6F03D3FB8AB3F5E06F03D3FB8AB3F551
:102FE000E06F01D90F2393E0FB6A596CFB6AB3F8D9
:102FF0004820FB6AB3F84A00FB6A1B6D0193BB696A
:1030000000930346F86AFFF70BFF7AE0B868FFF712
:1030100059FE78627B6A9BB2C3F30A037B84FB6A26
:103020001B6D9BB2C3F30A033B847B6ADB43DB0F5C
:10303000DBB2FB617A6A384B1340002B34D1FB6959
:10304000002B07D0FB6A1B69002B03D07A8C3B8CCA
:103050009A4229D1FB69002B28D07B8C7F2B23D966
:103060007B8CB3F5807F03D97B8CB3F5C07F1BD9F4
:103070007B8CB3F5B06F03D97B8CB3F5C06F13D3E2
:103080007B8CB3F5C06F03D97B8CB3F5D06F0BD3BA
:103090007B8CB3F5DC6F03D37B8CB3F5E06F03D38C
:1030A0007B8CB3F5E06F01D90F2331E0FB6A596CDB
:1030B000FB6AB3F84800FB6AB3F84A40FB6ADB6C72
:1030C0007A6A0192009323460246F86AFFF7A8FE47
:1030D00017E07B68012B01D00B2319E0B868FFF7DC
:1030E000E4FD034687F82B3097F82B30002B03D0F4
:1030F00097F92B30002B03DA0F2309E00E2307E0AA
:1031000000BF3B687A68B968F868FFF769F803465A
:1031100018463437BD4690BD00F8FF3F80B58CB0EF
:1031200002AFF860B9607A60FB70FB68002B08D0D2
:10313000BB68002B05D07B6B002B02D0FB6B002BF8
:1031400002D14FF0FF33F5E0FB68BA689A60FB6884
:10315000FA781A733B8E4FF47A7203FB02F2FB6823
:103160005A67FB6800221A757B68002B17D1FB7821
:10317000002B03D097F90330002B02DA4FF0FF3316
:10318000D8E0FB789BB203F5C063FB84FB789BB26D
:1031900003F5B063BB84FB6801221A61A4E0786880
:1031A000FFF79DFD03467B847B8CB3F5905F23D1B5
:1031B000FB78002B03D097F90330002B02DA4FF095
:1031C000FF33B7E0FB789BB203F5C063FB84FB7869
:1031D0009BB203F5B063BB84FB6801221A61FA8CD1
:1031E000012301217868FFF7DCFDBA8C012302215D
:1031F0007868FFF7D6FD77E07B8CB3F5905F6FD9E9
:103200007B8CB3F5945F6BD207F11D020123002183
:103210007868FFF79CFD034687F8213007F1180214
:10322000012301217868FFF7A7FD034687F82030C6
:1032300007F11402012302217868FFF79DFD034680
:10324000FB7797F92130002B0DD17B7F022B02D029
:103250007B7F032B07D197F92030002B03D197F9FF
:103260001F30002B08D07B6C002B02D07A8C7B6C3B
:103270001A606FF00B035DE0BB69002B05DBBB69D7
:103280009BB2C3F30A039BB200E00023FB847B697B
:10329000002B05DB7B699BB2C3F30A039BB200E002
:1032A0000023BB84FB68FA685A65FB68234A9A6569
:1032B000FB68234ADA65FB68543319467868FFF7E0
:1032C00033FD0346BB7797F91E30002B0BD07B6C88
:1032D000002B02D07A8C7B6C1A606FF00B0329E014
:1032E0004FF0FF3326E000BFFB6800229A63FB68C3
:1032F0007A6B5A64FB683A8FA3F84820FB68B7F8EA
:103300004020A3F84A20FB680022DA64FB68002210
:103310001A65FB68FA6B1A60FB8CBA8CB7F8400030
:10332000398F0192009303460A46796BF868FFF7DC
:1033300077FD034618462837BD4680BD3121000879
:10334000F92E000890B58DB000AFF860B960114655
:103350001A460B46FB711346BB80FB68D3F8A030BE
:10336000FB62FB681B6F002B7BD0FB685B6E002B46
:1033700015D0FB689A6EFB685B6E9A420FD0FB68B3
:103380009A6EFB685B6E9A4201D9774A00E0774AF1
:10339000BB681A60FB6801221A750023DFE0FB6836
:1033A0001B6ABB62FB6893F828305BB2002B3CDAE7
:1033B000BB6A002B04D0FB689B6EBA6A9A4234D970
:1033C000FB68D3F8A0300233202B2ED8FB68D3F84B
:1033D000A030591CFA68C2F8A010FA681344002201
:1033E00083F87C20FB689B6E5A1CFB689A66BB6A5C
:1033F000002B04D0FB689B6EBA6A9A4210D9FB6816
:10340000D3F8A030591CFA68C2F8A010FA68134427
:10341000002283F87C20FB689B6E5A1CFB689A662E
:10342000FB689A6EFB681A622DE0BB6A002B04D120
:10343000FB689A6EFB681A6225E0FB689B6EBA6AAD
:103440009A4220D0FB689B6EBA6A9A4201D2464AE1
:1034500000E0464ABB681A60FB6801221A75002327
:103460007DE0FB685B6E002B0DD0FB689A6EFB68FD
:103470005B6E9A4207D9BB683B4A1A60FB6801221F
:103480001A7500236BE000237B61FB681833184634
:10349000FFF735FC78627B6A002B08D0FB681B685D
:1034A000EFF31082FA61FA695A6372B600BFFB68E3
:1034B0001C6BFB6803F11800FB6803F17C01FB68DF
:1034C000D3F8A02007F11403A047034687F8233060
:1034D0007B6A002B07D0FB681B685B6BBB61BB6919
:1034E00083F3108800BFFB680022C3F8A02097F97F
:1034F0002330002B11D097F92330B3F1FF3F0CD0CC
:1035000097F923301846FFF731F80246BB681A6076
:10351000FB6801221A75002321E0FB681B6F002B5A
:103520000CD097F92330B3F1FF3F07D1BB680F4AA6
:103530001A60FB6801221A75002310E0FB681B6FFC
:10354000002B0BD197F92330002B07D1BB68064A1B
:103550001A60FB6801221A75002300E00123184657
:103560003437BD4690BD00BF1200070613000706A2
:1035700090B58FB000AFF860B9607A603B60FB68CF
:10358000D3F8A020FB68D3F8A430D31AFB62FB6801
:103590001B6F002B40F0B180FA6A7B689A4280F082
:1035A000AC80FB6803F17C00FB6803F17C02FB68E4
:1035B000D3F8A4301344FA6A19460AF027FAFB68D4
:1035C0000022C3F8A420FB68FA6AC3F8A020FB6AB3
:1035D000C3F12003BB6200237B61FB6803F17C0223
:1035E000FB6A13447B62FB6818331846FFF787FBBE
:1035F00038623B6A002B08D0FB681B68EFF310822F
:10360000FA61FA695A6372B600BFFB68DC6AFB684C
:1036100003F1180007F11403BA6A796AA047034658
:1036200087F837303B6A002B07D0FB681B685B6B61
:10363000BB61BB6983F3108800BF97F93730002B5B
:1036400011D097F93730B3F1FF3F0CD097F93730ED
:103650001846FEF78BFF0246BB681A60FB68012222
:103660001A7500234AE07B69002B22D0FB6893F88F
:1036700028305BB2002B1CDA7B697A6A1344002283
:103680001A70786AFCF764FD38633B6B002B01D13C
:1036900001233B637B693A6B9A420AD23B6B7B61A5
:1036A000002387F83730FB689A6E7B691A44FB6801
:1036B0001A627A69FB6A1A44FB68C3F8A020FB68A7
:1036C000D3F8A030002B04D097F93730B3F1FF3F87
:1036D00010D1FB6800221A67FB68D3F8A0307A6823
:1036E0009A420AD9BB68074A1A60FB6801221A7518
:1036F000002303E0FB6801221A67012318463C37C8
:10370000BD4690BD4700040690B59BB000AFF86081
:10371000B9607A603B60FB68002B03D16FF0010356
:1037200000F0FEBC012387F867300023BB62FB6812
:103730009B6B002B14BF01230023DBB27B65FB686E
:103740001B69002B0BD0FB681B7DDBB2002B06D165
:103750007B6D002B03D1002387F86730D3E2BB6871
:10376000002B03D0FB681B69002B09D1FB680022EA
:103770001A75FB6800229A63002387F86730C2E25B
:103780007B6D002B00F0BF82FB681B7DDBB2002B42
:1037900040F0CE8000233B66FB6893F83C3003F09A
:1037A000F003202B03D1FB6811221A750FE0FB6890
:1037B00093F83C30402B05D101233B66FB68212266
:1037C0001A7504E0A54BBB62FB6801221A75BB6A3F
:1037D000002B62D1FB6893F83E301B021AB2FB68E3
:1037E00093F83D301BB213431BB29AB2FB689A8622
:1037F000FB6893F83F20FB6883F83620FB689A68E3
:10380000FB689B8E19461046FEF762FDFB6893F835
:103810003610FB6803F118020023FEF7B5FD0346DE
:1038200087F8533097F95330002B0AD097F953306B
:103830001846FEF79BFE0346BB62FB6801221A7521
:103840002BE0FB6893F8283003F00303002B05D12D
:10385000834BBB62FB6801221A751EE03B6E002B96
:103860000CD0FB6893F8283003F00103002B05D13E
:103870007C4BBB62FB6801221A750EE03B6E002B8D
:103880000BD1FB6893F8283003F00203002B04D11E
:10389000754BBB62FB6801221A753B6E002B47D04B
:1038A000BB6A002B44D1FB680022C3F8A020FB6850
:1038B000D3F8A020FB68C3F8A420FB6800229A6616
:1038C000FB6800221A6707F1280100230722F86825
:1038D000FFF74EFE0346002B2AD0FB681B6F002B20
:1038E0001AD0FB681A6AFB685A66FB685B6E002B8D
:1038F00005D1FB68D3F8A020FB685A6618E0FB6886
:103900005A6EFB68D3F8A0309A4211D0574BBB6275
:10391000FB6801221A750BE0FB6893F828305BB254
:10392000002B02DBFB681B6A00E00023FA68536689
:10393000FB681B7DDBB2002B00F0D181FB681B7D97
:10394000DBB2012B00F0CB81FB681B7DDBB2113BAE
:10395000122B00F2BE8101A252F823F0A93900080F
:10396000D33C00088B3B0008D33C0008D33C000844
:10397000D33C0008D33C0008D33C0008D33C0008EB
:10398000D33C0008D33C0008D33C0008D33C0008DB
:10399000D33C0008D33C0008D33C0008813C00081D
:1039A000D33C0008893C0008FB6893F83C3003F0E6
:1039B0000203002B00F0AF80FB681B6A7B640423CA
:1039C000FB65FB6893F83C3003F00103002B0AD041
:1039D000FB6893F83C309B08DBB203F00303FA6DFD
:1039E000D31AFB6507E07B6C002B04D07B6C032BA8
:1039F00001D87B6CFB6500233B620023BB84FB6822
:103A000003F1400107F12003FA6D184609F0F0FFB9
:103A1000FB6893F828305BB2002B17DA7B6C002B25
:103A200003D0FA6D7B6C9A4210D27A6CFB6DD31A7C
:103A30003B643B6C012B01D1012300E00223FA6DB2
:103A40001344FB65FB68FA6D1A6221E07B6C002B66
:103A50000ED1FB68FA6D1A621AE000BF010004057E
:103A600000000106010001060200010647000406ED
:103A7000FA6D7B6C9A420BD0FA6D7B6C9A4201D93D
:103A8000984B00E0984BBB62FB6801221A7532E14B
:103A90000023FB61FB6818331846FFF730F9F86321
:103AA000FB6B002B08D0FB681B68EFF310823A63B6
:103AB0003A6B5A6372B600BFFB681C6BFB6803F17C
:103AC000180007F11C0307F12001FA6DA047034617
:103AD00087F83B30FB6B002B07D0FB681B685B6BE8
:103AE000FB62FB6A83F3108800BF97F93B30002B21
:103AF0000AD097F93B301846FEF738FD0346BB6203
:103B0000FB6801221A75F6E0FB6812221A75FB6841
:103B100001221A67EFE0FB6893F83C3003F00103E1
:103B2000002B28D0FB681B6ABB64FB6840331B6812
:103B3000BB61BA69FB685A66BB6C002B1ED0FB6880
:103B40005B6EBA6C9A4205D2664BBB62FB6801227F
:103B50001A75D0E0FB685B6EBA6C9A420ED9FB68AE
:103B600093F828305BB2002B08DB5F4BBB62FB682D
:103B700001221A75BFE0FB6800225A66FB68122218
:103B80001A75FB6800221A67B5E0FB6893F83C30B1
:103B900003F0E003002B6DD1FB6893F83C3003F099
:103BA0000103002B14BF01230023DBB21A46FB687C
:103BB0001A67FB6893F83C3003F0100387F8513024
:103BC000FB6893F86C3097F851209A4205D0474B28
:103BD000BB62FB6801221A758DE0FB6893F83C30EC
:103BE0005B08DBB2DB4303F00703FB64FB6803F114
:103BF0007C02FB68D3F8A030D018FB683D33FA6C28
:103C0000194609F0F5FEFB68D3F8A020FB6C1A44B6
:103C1000FB68C3F8A020FB689A6EFB6C1A44FB6833
:103C20009A66FB681B6A002B0BD0FB689A6EFB68D8
:103C30001B6A9A4205D92B4BBB62FB6801221A759D
:103C400059E0FB681B6F002B06D1FB68D3F8A0304E
:103C5000C3F12003082B09D807F128010023002213
:103C6000F868FFF76FFB0346002B43D0FB68142274
:103C70001A7540E01E4BBB62FB6801221A753AE0E0
:103C8000FB6822221A7536E0FB6893F83C3003F09B
:103C9000EF03602B17D1FB6893F83C3003F010035F
:103CA00087F85230FB6893F86C3097F852209A42AC
:103CB00005D00E4BBB62FB6801221A751BE0FB6846
:103CC00024221A7517E00A4BBB62FB6801221A75A1
:103CD00011E0074BBB62FB6801221A750BE000BFC5
:103CE00009E000BF120007061300070600000305E5
:103CF0000100040500BFFB6800229A6700237B6077
:103D0000FB6800229A6397F96730012B1ED1FB688C
:103D10009A6FFB685B6F9A4205D2FB689A6F7B686B
:103D20001A44FB689A67FB689A6FFB685B6F9A425C
:103D300004D39C4BBB62FB6801221A75FB685B686D
:103D40001B69002B02D0042387F8673097F967308E
:103D5000012B40F0A881FB685B6805330822002135
:103D6000184609F06DFEFB681B7DDBB2123B122B7F
:103D700000F29B8101A252F823F000BFC93D000868
:103D8000AB4000084B3E0008AB400008AB400008C9
:103D9000AB400008AB400008AB400008AB40000857
:103DA000AB400008AB400008AB400008AB40000847
:103DB000AB400008AB400008AB400008A73E00083D
:103DC000AB400008753F0008FB685B6860225A71D1
:103DD000FB689A8EFB685B68D2B29A71FB689B8E17
:103DE0001B0A9AB2FB685B68D2B2DA71FB685B6847
:103DF000FA6892F836201A72FB6800229A67FB680C
:103E00001A68FB685B681946104603F043FBFB68C1
:103E10001B6F002B06D0FB6800221A75002387F861
:103E2000673045E1FB68002283F86C20FB680022C4
:103E30009A66FB680022C3F8A020FB680022C3F842
:103E4000A420FB6813221A7532E1FB6893F86C20FA
:103E5000FB685B6842F02002D2B25A71FB6893F8AB
:103E60006C30002B01D1102200E00022FB6883F8A7
:103E70006C20FB6800229A67FB681A68FB685B6825
:103E80001946104603F006FBFB681B6F002B06D09B
:103E9000FB6800221A75002387F8673008E1FB6889
:103EA00013221A7504E1FB685B6E002B24D0FB68BB
:103EB0005B6E042B20D8FB685B6EDBB2C3F104039E
:103EC000DBB29B00DAB2FB685B6842F04302D2B21D
:103ED0005A71FB685B6803F10900FB6803F17C0120
:103EE000FB685B6E1A4609F083FDFB6800221A75B9
:103EF000002387F8673020E0FB685B6E002B0ED054
:103F0000FB685B6E7B637B6B7B61FB685B6841225C
:103F10005A71FB685B6809337A691A6003E0FB68D1
:103F20005B6840225A71FB68002283F86C20FB68B2
:103F300000229A67FB6823221A75FB689A8EFB6839
:103F40005B68D2B29A71FB689B8E1B0A9AB2FB68BF
:103F50005B68D2B2DA71FB685B68FA6892F8362067
:103F60001A72FB681A68FB685B681946104603F012
:103F700091FA9DE007F1280100230722F868FFF776
:103F8000F7FA0346002B00F09280FB685B68FA6842
:103F900092F86C205A71FB6893F86C30002B03D1B7
:103FA000102202E0000004050022FB6883F86C2068
:103FB000FB68D3F8A020FB68D3F8A430D31ABB6504
:103FC000BB6D062B06D9FB681B6F002B1BD0BB6D8E
:103FD000072B18D1FB685B685A79BB6DDBB2C3F164
:103FE0000703DBB25B00DBB21343DAB2FB685B684A
:103FF00042F00102D2B25A71FB6800221A75002306
:1040000087F8673007E0FB6800229A67FB68232285
:104010001A750723BB65FB685B68981DFB6803F195
:104020007C02FB68D3F8A4301344BA6D194609F03A
:10403000DFFCFB68D3F8A420BB6D1A44FB68C3F80F
:10404000A420FB689A6EBB6D1A44FB689A66FB68F5
:104050005B6E002B1ED0FB689A6EFB685B6E9A420B
:1040600005D9314BBB62FB6801221A7520E097F934
:104070006730002B0ED1FB689A6EFB685B6E9A422C
:1040800008D22A4BBB62012387F86730FB68012204
:104090001A750DE0FB681A68FB685B6819461046E4
:1040A00003F0F8F904E000BF02E000BF00E000BF49
:1040B00097F96730012B31D1FB681B7DDBB2012BF7
:1040C0002CD1BB6A3B61FB685B6880225A71FB683C
:1040D0009A8EFB685B68D2B29A71FB689B8E1B0A52
:1040E0009AB2FB685B68D2B2DA71FB685B68FA6807
:1040F00092F836201A72FB685B6809333A691A60D5
:10410000FB681A68FB685B681946104603F0C2F941
:10411000FB6800221A75F62387F8673097F9673035
:1041200018466C37BD4690BD1200070613000706FF
:1041300080B485B000AF78607B681B78FB73FB7B35
:1041400018461437BD4680BC704780B485B000AFB8
:1041500078607B681B68FB60FB6818461437BD46B7
:1041600080BC704780B483B000AF78607B68002B60
:1041700002D07B681B8800E0002318460C37BD4640
:1041800080BC704780B483B000AF786039607B68D2
:10419000002B01D1052303E07B683A689A60002375
:1041A00018460C37BD4680BC704780B586B002AF5C
:1041B000F8607A603B600B46FB72F97A3B680093CB
:1041C00001237A68F868FEF7EDF9034618461037C0
:1041D000BD4680BD80B586B002AFF8607A603B60B6
:1041E0000B46FB72F97A3B68009304237A68F868FF
:1041F000FEF7D8F9034618461037BD4680BD80B596
:1042000082B000AF78607B689B7C0133DAB27B6858
:104210009A747B689A7C7B685B7C9A4202D97B6843
:1042200001229A747B6800229A617B68DB68002B0C
:104230000CBF01230023DBB21A467B68DA607B687F
:104240009B6A7A68927C5A717B689A6C7B689B6ADD
:104250001946104603F01EF9034618460837BD46B6
:1042600080BD80B487B000AF786039607B683B6107
:104270003B681B79FB7300237B613B695B7C002BF4
:104280000CD1FB7B002B02D101237B6119E0FB7B6E
:1042900043F04003DAB23B691A7212E0FB7B012B58
:1042A00009D13B680533BB60BB681A783B699A74D7
:1042B00001237B6105E0FB7B63F07F03DAB23B699E
:1042C0001A727B69002B0CD03B69DB68002B0CBF9A
:1042D00001230023DBB21A463B69DA603B69012205
:1042E0005A6000BF1C37BD4680BC704790B58FB088
:1042F00004AFF860B9607A603B60FB68002B0CD0BB
:10430000FB685B7C002B08D1BB68002B05D07B6869
:10431000042B02D13B68002B01D10923A3E0FB68E9
:104320005B687B62B868FFF710FF38623B6A9BB23C
:10433000C3F30A03FB833B6A03F08043002B14BFE3
:1043400001230023DBB2BB613A6A494B1340002BC7
:1043500033D1FB8B7F2B30D9FB8BB3F5807F03D917
:10436000FB8BB3F5C07F28D9FB8BB3F5B06F03D9B6
:10437000FB8BB3F5C06F20D3FB8BB3F5C06F03D9B4
:10438000FB8BB3F5D06F18D3FB8BB3F5DC6F03D386
:10439000FB8BB3F5E06F10D3FB8BB3F5E06F0CD85C
:1043A0007B6A5B6A002B0AD0BB69002B07D07B6A53
:1043B000B3F84430FA8B9A4201D00F2353E07B6A62
:1043C000B3F84430FA8B9A423AD07B6AD86A7B6A57
:1043D000198EFA8B274B02937B6A0193002300937B
:1043E00040F2FF7302F080FF0346FB7597F9173028
:1043F000002B01D0092336E07B6A986C7B6AB3F806
:104400004C107B6A5B7C002B14BF01230023DBB2C2
:104410001C46FA8B002301930094002302F0C0FF96
:1044200002467B6A9A627B6A9B6A002B04D17B6A94
:1044300000225A62092316E07B6AFA8BA3F8442013
:104440007B6ABA695A62BB69002B05D07B6A00227D
:104450009A747B6A00229A613B687A68B968F86846
:10446000FDF7BEFE034618462C37BD4690BD00BF83
:1044700000F8FFBF6342000890B589B002AFF86052
:10448000B9607A603B60FB68002B0CD0FB685B7CFA
:10449000002B08D1BB68002B05D07B68012B02D113
:1044A0003B68002B01D1092341E0FB685B687B611D
:1044B000B868FFF73DFE0346FB74FB7C012B02D07E
:1044C000FB7CF02B01D90F2331E07B69DB691B6892
:1044D000002B01D017232AE07B69986C7B69B3F825
:1044E0004C107B69B3F84420FB7C002B14BF0123E4
:1044F0000023DBB21C46002301930094002302F04A
:104500004FFF02467B699A627B699B6A002B04D14C
:104510007B6900225A62092309E07B69FA7C5A749C
:104520003B687A68B968F868FDF75AFE0346184692
:104530001C37BD4690BD000080B58CB004AFF8605C
:10454000B9607A603B60FB68002B0ED0BB68002B23
:104550000BD07B68002B08D03B68002B05D0BB6BD1
:10456000002B02D03B6B002B02D14FF0FF33FEE05B
:1045700060220021F86809F063FA8023BB6107F12B
:104580001802012300217868FFF724FE0346FB7719
:1045900097F91F30002B0CD03B6C002B06D07868AD
:1045A000FFF7E0FD03461A463B6C1A606FF00B0301
:1045B000DDE0FB68FA685A63FB686F4A9A63FB6840
:1045C0006E4ADA63FB68343319467868FFF7DAFD20
:1045D0000023042200213868FEF74BF80246FB68EE
:1045E000DA61FB68DB69002B0CD13B6C002B06D039
:1045F0003868FFF7B7FD03461A463B6C1A606FF048
:104600000B03B4E0002304220021B86AFEF731F85E
:104610000246FB681A62BB6A002B10D0FB681B6A5B
:10462000002B0CD13B6C002B06D0B86AFFF79AFD2B
:1046300003461A463B6C1A606FF00B0397E00023A9
:10464000FB75FB6A002B33D007F117020123002111
:10465000F86AFFF7AAFD0346FB7797F91F30002B96
:104660000CD03B6C002B06D0F86AFFF77BFD0346AD
:104670001A463B6C1A606FF00B0378E0FB7D012B50
:1046800002D10223FB7504E0FB7DF02B01D9F0235E
:10469000FB75FB68FA681A65FB68374A5A65FB6860
:1046A000374A9A65FB6850331946F86AFFF76AFD86
:1046B000FA7DFB685A74FB68BA681A60BB6903F03C
:1046C0008043002B14BF01230023DBB21A46FB6892
:1046D0005A62BB699BB2C3F30A039AB2FB68A3F8A0
:1046E0004420FB683A6BDA62FB68BA8E1A86FB6874
:1046F000BA6B9A64FB68BA8FA3F84C20BB699BB273
:10470000C3F30A039AB2B98E1E4B0293FB6801935E
:104710000023009340F2FF73386B02F0E5FD03467F
:10472000BB7797F91E30002B02D097F91E301EE0A0
:10473000BB699BB2C3F30A039AB2FB7D002B14BF83
:1047400001230023DBB21846B98F002301930090A8
:104750000023B86B02F024FE0246FB689A62FB68F5
:104760009B6A002B02D14FF0FF3300E00023184674
:104770002037BD4680BD00BF31210008ED42000852
:10478000794400086342000880B58AB002AFF8603F
:10479000B9607A603B600023FB77BB68002B00F0B8
:1047A0008880FB689B697A6813447B61FB689B691E
:1047B0007A699A4202D9FB687A699A61FB685B68F8
:1047C000002B07D0FB6800229A610123FB77FB686E
:1047D00000225A60FB68DB69002B03D0FB68DB69B1
:1047E0001B6800E000233B613B69002B31D0FB6874
:1047F0005B6A002B0AD0FB689B693A699A4228D809
:104800000123FB77F868FFF7FAFC22E0FB681B7CCA
:10481000012B1ED13B695B083A691344BB61BA693D
:104820003B699A4202D24FF0FF33BB61FB689B6940
:10483000BA699A420DD2FB681868FB689B690093BD
:104840004FF4014318220121FCF76AFEFB680222A3
:104850001A74FB681B6A002B15D0FB681B6A1B6867
:10486000002B10D0FB689A69FB681B6A1B689A4290
:1048700009D9FB685B69002B01D10223FB77FB6838
:1048800001225A6102E0FB6800225A61FB681B7A30
:10489000002B1AD0FB681868FB681B7A009348F25B
:1048A000402319220121FCF73BFEFB6800221A720B
:1048B0000BE0FB6800225A60FB6800221A72FB685A
:1048C00000229A74FB6800229A61FB7F012B0FD1B2
:1048D000FB681B7C022B08D1FB681868002300933F
:1048E000002318220021FCF71BFEFB6801221A742A
:1048F000FB7F18462037BD4680BD80B485B000AF31
:1049000078607B681B889BB2FB81FB891846143753
:10491000BD4680BC704780B485B000AF78607B68CE
:104920001B68FB60FB6818461437BD4680BC7047A7
:1049300080B483B000AF78607B68002B02D07B68C6
:104940001B8800E0002318460C37BD4680BC70472A
:1049500080B483B000AF786039607B68002B01D1F0
:10496000052303E07B683A689A60002318460C37F9
:10497000BD4680BC704780B586B002AFF8607A60F3
:104980003B600B46FB72F97A3B68009304237A681C
:10499000F868FDF707FE034618461037BD4680BD90
:1049A00080B586B000AF786039607B687B613B681A
:1049B0001B79FB743B680533FB60FB7C062B08D13D
:1049C0007B690622F968184609F012F87B69012212
:1049D0009A6100BF1837BD4680BD000080B588B021
:1049E00000AFF860B9607A603B60FB68002B0CD0C8
:1049F000FB685B7C002B08D1BB68002B05D07B6873
:104A0000042B02D13B68002B01D1092351E0FB6844
:104A10005B68FB61B868FFF77EFFB861BB699BB25A
:104A2000C3F30A03FB82BA69244B1340002B26D13F
:104A3000FB8A7F2B23D9FB8AB3F5807F03D9FB8ABE
:104A4000B3F5C07F1BD9FB8AB3F5B06F03D9FB8ADE
:104A5000B3F5C06F13D3FB8AB3F5C06F03D9FB8ADC
:104A6000B3F5D06F0BD3FB8AB3F5DC6F03D3FB8AAE
:104A7000B3F5E06F03D3FB8AB3F5E06F01D90F23E1
:104A800017E0BB69DB0FDBB21A46FB691A61BB6931
:104A900003F08043002B14BF01230023DBB21A462E
:104AA000FB695A613B687A68B968F868FDF798FB5A
:104AB000034618462037BD4680BD00BF00F8FF3FC3
:104AC00080B58CB004AFF860B9607A607B80FB6819
:104AD000002B05D0BB68002B02D07B68002B02D1D5
:104AE0004FF0FF3361E02C220021F86808F0A8FFA6
:104AF00007F1140201230021B868FFF73CFF0346C9
:104B0000FB7797F91F30002B0CD0BB6A002B06D027
:104B1000B868FFF70DFF03461A46BB6A1A606FF0CC
:104B20000B0342E0FB68FA68DA61FB68214A1A620B
:104B3000FB68214A5A62FB681C331946B868FFF7C4
:104B400007FF7B699BB2C3F30A03BB837B69DB0F5F
:104B5000DBB21A46FB681A617B6903F08043002BC5
:104B600014BF01230023DBB21A46FB685A61FB68BD
:104B700000229A61FB681B69002B15D0BA8B7988DB
:104B80000E4B0293FB6801930023009340F2FF73E6
:104B9000786802F0A9FB0346FB7697F91B30002BDF
:104BA00002D097F91B3000E0002318462037BD469D
:104BB00080BD00BF31210008DD490008A14900087F
:104BC00080B58AB000AFF860B9607A6000237B627C
:104BD000BB68002B24D0FB681B69002B20D0FB682E
:104BE0009B69002B1FD0FB681846FFF794FE3862C4
:104BF000FB6804331846FFF780FE0346FB833B6ADD
:104C000023F07042FB689A60FB68FA8B9A81FB681C
:104C10000022DA8101237B62FB6800229A6102E0B4
:104C2000FB6800229A610023BB617B6A002B32D1B2
:104C30007B68002B2FD0FB68DB891A467B68134406
:104C40007B617B69164AA2FB03239B09BB617A69DE
:104C5000134BA3FB02139B094FF47A7101FB03F37F
:104C6000D31A9AB2FB68DA81FB689A68BB691A4466
:104C7000FB689A60FB689B680A4A93420BD9FB6801
:104C80009A68094B1344FA689360FB689B89013367
:104C90009AB2FB689A817B6A18462837BD4680BD68
:104CA000D34D6210FF5B260500A4D9FA80B584B00D
:104CB00000AF78600023FB737B68002B02D14FF0BC
:104CC000FF3306E00C220021786808F0B9FE97F95E
:104CD0000F3018461037BD4680BD000080B489B043
:104CE00000AFF860B9603B601346FB710023FB77AF
:104CF0000023BB770023BB61FB681A68BB681A44BA
:104D0000FB681A6000E1FB685B7A03F00103002B8B
:104D10000CBF01230023DBB23B610123BB61FB68B5
:104D20001B68A3F54343503BFA681360FB681B798B
:104D30000133DAB2FB681A71FB681B79032B40F26E
:104D4000CB80FB6800221A710023BB77BB7FFB7707
:104D5000FB685B7A03F00203002B04D1FB7F43F076
:104D60000203FB7703E0BB7F43F00203BB77FB68E2
:104D70005B790133DAB2FB685A71FB685B79062B09
:104D800010D0062B12DC012B02D0022B05D00DE037
:104D9000FB7F43F00403FB7709E0BB7F43F0040390
:104DA000BB7704E0FB6800225A7100E000BFFB689B
:104DB0009B790133DAB2FB689A71FB689B79013BFE
:104DC000072B21D801A252F823F000BFED4D0008B7
:104DD000F74D0008ED4D0008F74D0008094E00089A
:104DE000094E0008094E0008014E0008FB7F43F001
:104DF0000803FB7709E0BB7F43F00803BB7704E0BF
:104E0000FB6800229A7100E000BFFB68DB79013388
:104E1000DAB2FB68DA71FB68DB79013B092B25D834
:104E200001A252F823F000BF514E00085B4E00086B
:104E3000514E00085B4E0008514E00085B4E0008C2
:104E40006D4E00086D4E00086D4E0008654E00085E
:104E5000FB7F43F01003FB7709E0BB7F43F01003B7
:104E6000BB7704E0FB680022DA7100E000BFFB685A
:104E70001B7A0133DAB2FB681A72FB681B7A013BBA
:104E80000B2B34D801A252F823F000BFBD4E00080E
:104E9000C74E0008BD4E0008C74E0008BD4E0008B2
:104EA000C74E0008BD4E0008C74E0008EF4E000870
:104EB000EF4E0008EF4E0008D14E0008FB7F43F094
:104EC0002003FB7714E0BB7F43F02003BB770FE0A8
:104ED000FB6800221A720BE0FB685B7A03F07E032A
:104EE000FB77FB689B7A03F07E03BB7700E000BF93
:104EF0003B69002B04D0FB7F43F00103FB7703E009
:104F0000BB7F43F00103BB77FB681B684CF24F3259
:104F100093423FF6F8AEBB69002B77D0BB6A002BFB
:104F200002D00123FB7532E097F90730002B04D142
:104F3000FB7F03F00103FB7529E03B6B002B04D0E2
:104F4000FB7F03F02003FB7521E07B6B002B04D07B
:104F5000FB7F03F01003FB7519E0BB6B002B04D043
:104F6000FB7F03F00803FB7511E0FB6A002B04D004
:104F7000FB7F03F00403FB7509E0FB6B002B04D0FF
:104F8000FB7F03F00203FB7501E00023FB753B6828
:104F9000002B04D0BB7F03F00103BB7522E03B6C08
:104FA000002B04D0BB7F03F01003BB751AE097F908
:104FB0000730042B04D1BB7F03F00403BB7511E061
:104FC00097F907307F2B04D1BB7F03F00203BB7539
:104FD00008E097F90730052B02D10123BB7501E0EA
:104FE0000023BB75FB7D002B03D0FB7F63F07F03A9
:104FF000FB77BB7D002B03D0BB7F63F07F03BB77C8
:10500000FB68FA7F5A72FB68BA7F9A7200BF243736
:10501000BD4680BC704700BF80B590B000AF7860DF
:1050200039607B687B633B681B7987F8333097F87E
:105030003330082B40F04C817B6B5B6C002B40F0D5
:1050400047810023FB633B680533FB62FB6A1B78E7
:1050500087F82B3097F82B30042B2CD1FB6A5B7828
:10506000FB77FB7F002B02D0012B20D02AE17B6B4A
:105070001B7C012B10D17B6B93F84030FF2B0BD1A5
:105080007B6BDB6B1B78FF2B06D07B6B97F82B20A1
:1050900083F848200123FB637B6B00221A747B6B2F
:1050A000143310220021184608F0CAFC0AE17B6B79
:1050B00001221A7406E17B6B1B7C002B40F0EE8012
:1050C00097F82B30403B112B00F2F78001A252F8E9
:1050D00023F000BF1D5100082D5100083D5100086C
:1050E0004D510008BB520008BB520008BB520008DB
:1050F000BB520008BB520008BB520008BB5200085C
:10510000BB520008BB520008BB520008BB5200084B
:10511000BB520008BB520008A9510008FB6A0133CA
:105120001B68BB61BA697B6B5A61CBE0FB6A0133D8
:105130001B687B617A697B6B9A61C3E0FB6A013310
:105140001B683B613A697B6BDA61BBE0FB6A013348
:105150001B68FB60FA687B6B1A627B6B5A687B6B1F
:105160009B699A4240F0AB807B6B9A687B6BDB69F2
:105170009A4240F0A4807B6BDA687B6B1B6A9A4290
:1051800040F09D807B6B1A687B6B5B699A4240F0B4
:1051900096807B6B01221A747B6B97F82B2083F827
:1051A00048200123FB638AE07B6BDB6B1B78FF2BC2
:1051B00040F087807B6B93F84030FF2B40F081807C
:1051C000FB6A5B7987F82A30FB6A9B7987F829307C
:1051D000FB6ADB7987F8283097F82A301F2B03D930
:1051E00097F82A30802B6DD197F82930032B69D896
:1051F00097F82830032B65D8FB6A01331B68BB6026
:10520000BB687B620023BB6397F82A30802B0DD1EB
:105210000123BB637B6B002283F834207B6B243338
:1052200010220021184608F00BFC2CE07B6B93F851
:10523000343097F829209A4225D197F82A304FF038
:10524000FF3202FA03F33B6297F829207B6B53F895
:1052500022207B6A5A403B6A1340002B13D1012362
:10526000BB637B6B97F8282083F8342097F82A30AB
:10527000002B08D197F8282097F829309A4202D2BB
:105280007B6B01221A74BB6B002B1AD07B6B97F8D7
:105290002B2083F848200123FB6312E07B6B49330A
:1052A0000822F96A184608F0A3FB7B6B97F82B20BD
:1052B00083F848200123FB6304E000BF02E000BF45
:1052C00000E000BFFB6B002B02D07B6B01225A6415
:1052D00000BF4037BD4680BD80B58AB004AFF860DE
:1052E000B9607A603B600023FB75FB68002B18D027
:1052F0007B68002B15D03B68002B12D03B6A002B3B
:105300000FD0FB6A002B0CD03B681B78002B04D01D
:105310003B681B785BB2002B06DA3B681B78FF2BDF
:1053200002D04FF0FF3346E074220021F86808F005
:1053300087FBFB681022B968184608F059FBFB6828
:1053400000221A74FB68002283F83420FB687A6814
:105350009A63FB683A68DA633B681A78FB6883F8FB
:105360004020FB6800225A643A8DB98C144B02939A
:10537000FB6801930023009340F2FF73386A01F049
:10538000B3FF0346FB75FB68FA6ADA66BA8E398E9C
:1053900000230193082300930023F86A02F000F829
:1053A0000246FB681A67FB681B6F002B01D1FF23C5
:1053B000FB7597F9173018461837BD4680BD00BFFA
:1053C0001950000880B58CB000AF78600023FB62F4
:1053D0007B685B6C002B00F0038200237B627B68A0
:1053E0001B6F053308220021184608F029FB7B6853
:1053F00093F84830043B5A2B00F2DD8101A252F8A9
:1054000023F000BF71550008B7570008B7570008D0
:10541000B7570008B7570008B7570008B757000834
:10542000B7570008B7570008B7570008B757000824
:10543000B7570008B757000885550008B757000848
:10544000D3550008B75700086F560008B757000833
:10545000AD560008B7570008B7570008B7570008FF
:10546000B7570008B7570008B7570008B7570008E4
:10547000B7570008B7570008B7570008B7570008D4
:10548000B7570008B7570008B7570008B7570008C4
:10549000B7570008B7570008B7570008B7570008B4
:1054A000B7570008B7570008B7570008B7570008A4
:1054B000B7570008B7570008B7570008B757000894
:1054C000B7570008B7570008B7570008B757000884
:1054D000B7570008B7570008B7570008B757000874
:1054E000B7570008B7570008B7570008B757000864
:1054F000B7570008B7570008B7570008B757000854
:1055000077550008B7570008B7570008B757000885
:10551000B7570008B7570008B7570008B757000833
:10552000B7570008B7570008B7570008B757000823
:10553000B7570008B7570008A9570008B757000821
:10554000B7570008B7570008B7570008B757000803
:10555000B7570008B7570008B757000803570008A7
:105560002557000847570008695700088B5700085F
:105570000123FB6226E17B681B6F44225A710123E1
:105580007B621FE17B6893F84A30FB74002387F845
:105590002B30FB7C002B03D097F91330002B02DA61
:1055A000FB7CFF2B04D17B68DB6BFA7C1A7002E07A
:1055B000012387F82B307B681B6F7A6892F84820AC
:1055C0005A717B681B6F97F82B209A7101237B62BD
:1055D000F8E07B685B6D002B00F0EF807B6893F850
:1055E0004A307B777B6893F84B303B77002387F812
:1055F0002B30002387F82A307B7F002B21D13B7F83
:10560000052B1ED03B7F092B1BD83B7F774A32F8F6
:1056100013307B837B685B6D7A68926D798B104663
:10562000984778617B69002B04D07B689B6B7A8BF1
:105630001A8009E0FF2387F82B30012387F82A30EE
:1056400002E0012387F82B307B681B6F7A6892F8A1
:1056500048205A717B681B6F97F82B209A717B68E2
:105660001B6F97F82A20DA7101237B62AAE07B681E
:105670005B6D002B00F0A3807B68DB6D002B00F0DE
:10568000A0807B6893F84B309BB21B02FB837B6846
:1056900093F84A309AB2FB8B1343FB837B68DB6D34
:1056A0007A68126EF98B104698478AE0002387F8D3
:1056B0002B307B685B6E002B03D1012387F82B30E6
:1056C00011E07B685B6E7A68906E7A68D26B1178B5
:1056D0007A68926B1288984738623B6A002B02D135
:1056E000022387F82B307B681B6F7A6892F848207A
:1056F0005A717B681B6F97F82B209A7101237B628C
:1057000060E07B681B6F7A6892F848205A717B686A
:105710001B68FB607B681B6F0633FA681A60012305
:105720007B624FE07B681B6F7A6892F848205A7161
:105730007B685B68FB607B681B6F0633FA681A60E6
:1057400001237B623EE07B681B6F7A6892F84820F9
:105750005A717B689B68FB607B681B6F0633FA6835
:105760001A6001237B622DE07B681B6F7A6892F8D8
:1057700048205A717B68DB68FB607B681B6F0633CF
:10578000FA681A6001237B621CE07B681B6F7A68F1
:1057900092F848205A717B681B6F7A6892F8402013
:1057A0009A7101237B620DE07B681B6F4F225A7157
:1057B00001237B6206E000BF04E000BF02E000BFFF
:1057C00000E000BF7B6A002B07D07B68DA6E7B6845
:1057D0001B6F1946104601F05DFE7B6800225A647B
:1057E000FB6A18463037BD4680BD00BF7CE9000823
:1057F00080B485B000AF78600B46FB70FB78DB08A7
:10580000FB73FB7803F00703012202FA03F3BB7377
:105810007B68002B0AD0FB7B092B07D8FB7B7A68BF
:10582000D25CBB7B1340DBB2002B01D0012300E034
:10583000002318461437BD4680BC704780B483B03F
:1058400000AF78607B68002B07D07B68DB68002B9B
:1058500003D07B68DB681B7800E0002318460C3718
:10586000BD4680BC704780B483B000AF78607B6871
:10587000002B03D07B6893F9003000E0002318462A
:105880000C37BD4680BC704780B483B000AF7860F1
:105890007B68002B02D07B681B7C00E0002318464D
:1058A0000C37BD4680BC704780B586B000AF7860CD
:1058B00039600023FB6000233B6100237B614021B2
:1058C000012007F081FE0346FB60FB68002B00F01F
:1058D000DE807B6940337B612C21012007F074FE60
:1058E00003461A46FB681A61FB681B69002B00F02F
:1058F000D0807B692C337B610823FB72302101202F
:1059000007F062FE03461A46FB685A61FB685B6952
:10591000002B00F0C0807B6930337B61FB7A102163
:10592000184607F051FE03461A46FB689A61FB6869
:105930009B69002B00F0B180FB7A1B017A6913444C
:105940007B615021012007F03FFE03461A46FB68A9
:10595000DA61FB68DB69002B00F0A1807B695033C2
:105960007B611123BB72BB7A012B12D9BB7A082150
:10597000184607F029FE03461A46FB681A62FB68C0
:105980001B6A002B00F08D80BB7ADB007A69134420
:105990007B61A821012007F017FE03461A46FB6829
:1059A0005A62FB685B6A002B7DD07B69A8337B6100
:1059B0002C21012007F008FE03461A46FB689A6274
:1059C000FB689B6A002B70D07B692C337B61602164
:1059D000012007F0F9FD03461A46FB68DA62FB680E
:1059E000DB6A002B63D07B6960337B610C21012073
:1059F00007F0EAFD03461A46FB689A63FB689B6B57
:105A0000002B56D07B690C337B617421012007F099
:105A1000DBFD03461A46FB68DA63FB68DB6B002B91
:105A200049D07B6974337B613821012007F0CCFDBC
:105A300003461A46FB685A60FB685B68002B3CD043
:105A40007B6938337B610C210D2007F0BDFD0346D7
:105A50001A46FB689A60FB689B68002B2FD07B6915
:105A60009C337B611821052007F0AEFD03461A46E2
:105A7000FB68DA60FB68DB68002B22D07B69783337
:105A80007B61FB6801221A60FB683B611AE000BF82
:105A900018E000BF16E000BF14E000BF12E000BF36
:105AA00010E000BF0EE000BF0CE000BF0AE000BF46
:105AB00008E000BF06E000BF04E000BF02E000BF56
:105AC00000E000BF3B69002B02D1F86800F00BF842
:105AD0003B68002B02D03B687A691A603B69184624
